:100000000C940D0E0C94350E0C94350E0C94350E8C
:100010000C94350E0C94350E0C94350E0C94350E54
:100020000C94350E0C94350E0C9404180C94761820
:100030000C94350E0C94350E0C94350E0C94350E34
:100040000C94350E0C94350E0C94350E0C94350E24
:100050000C94350E0C94350E0C94350E0C942C111A
:100060000C94350E0C94350E0C94350E0C94350E04
:100070000C94350E0C94350E0C94350E0C94350EF4
:100080000C9422120C94350E0C94350E0C94350EF3
:100090000C94350E0C94350E0C94350E0C94350ED4
:1000A0000C94350E0C94350E0C94350E59105C10D2
:1000B0004B104F1053107D107D107D106010641098
:1000C00068106E1072107D1078100000000024007F
:1000D00027002A002D003000D5F08D14A1C881CF53
:1000E000D9F1AF20000408020110408040102040E8
:1000F000804080080204018040201002011080101E
:100100002040402000000000250028002B002E0089
:10011000310004040404040304050202020204037F
:100120000202020206060606060604040202020491
:10013000041402130212021502070208020A020A3C
:10014000010B020B010902090104010C0106010067
:10015000FFFFC3DBFFC3FFFFFFFFFFDFDFC7FFFFC3
:1001600091523C27E43C4A89994224999924429926
:100170008142241818244281002E35F175F14E0079
:10018000004EF175F1352E00004EB17571B54E007F
:10019000004EBD7F7FBF4E007EC389A1A189C37E73
:1001A0007EC385B1B185C37EFC86C389C18BC6FC85
:1001B000F88CC692C296CCF8FCC693818193C6FC9B
:1001C000F8CCA68383A6CCF8090606090E0F0B0E01
:1001D0008403640020036400840364005802640004
:1001E000F40164002C016400640064002C016400CC
:1001F000F40164003200A0000080FFFFFFFFFFFF5A
:10020000FFFFFFFFFFFFFFFFFFFFFFFFFFFFFFEF0E
:100210001745FFFFFFFFF1FFFFFFE7B7FFFFFFEF0E
:100220007B5DFFFFFFFFECFFFFFFC3CFFFFFFFEF93
:100230003ACDFFFFFFFFEAFFFFFFCBCFFFFFFFEF4E
:100240007CDDFFFFFFFFEEFFFFFFC3B7FFFFFFE116
:100250001DC43FFFFFFFF1FFFFFFFFFFFFFFFFFF99
:10026000FFFFFFFFFFFFFFFFFFFF00000000000098
:1002700000000000000000000000FFFFFFFFFFFF84
:10028000FFFFFFFFFFFFFFFFFFFFAEFFFFFFFFFFCF
:10029000FFFFFFFFFFFFFFFFFFAEFEFFFFFFFFFFC0
:1002A000FFFFFFFFFFFFFFFFFFFEBAFFFFFFFFFFA4
:1002B000FFFFFFFFFFFFFFFFFFBAFEFFFFFFFFFF94
:1002C000FFFFFFFFFFFFFFFFFFFEAAFFFFFFFFFF94
:1002D000FFFFFFFFFFFFFFFFFFAAFEFFFFFFFFFF84
:1002E000FFFFFFFFFFFFFFFFFFFE00FFFFFFFFFF1E
:1002F000FFFFFFFFFFFFFFFFFF00FFFFFFFFFFFF0D
:10030000FFFFFFFFFFFFFFFFFFFFAEFFFFFFFFFF4E
:10031000FFFFFFFFFFFFFFFFFFAEFEFFFFFFFFFF3F
:10032000FFFFFFFFFFFFFFFFFFFEBAFFFFFFFFFF23
:10033000FFFFFFFFFFFFFFFFFFBAFEFFFFFFFFFF13
:10034000FFFFFFFFFFFFFFFFFFFEAAFFFFFFFFFF13
:10035000FFFFFFFFFFFFFFFFFFAAFEFFFFFFFFFF03
:10036000FFFFFFFFFFFFFFFFFFFE00FFFFFFFFFF9D
:10037000FFFFFFFFFFFFFFFFFF00FFFFFFFFFFFF8C
:10038000FFFFFFFFFFFFFFFFFFFFAEFFFFFFFFFFCE
:10039000FFFFFFFFFFFFFFFFFFAEFEFFFFFFFFFFBF
:1003A000FFFFFFFFFFFFFFFFFFFEBAFFFFFFFFFFA3
:1003B000FFFFFFFFFFFFFFFFFFBAFEFFFFFFFFFF93
:1003C000FFFFFFFFFFFFFFFFFFFEAAFFFFFFFFFF93
:1003D000FFFFFFFFFFFFFFFFFFAAFEFFFFFFFFFF83
:1003E000FFFFFFFFFFFFFFFFFFFE00FFFFFFFFFF1D
:1003F000FFFFFFFFFFFFFFFFFF00FFFFFFFFFFFF0C
:10040000FFFFFFFFFFFFFFFFFFFFAEFFFFFFFFFF4D
:10041000FFFFFFFFFFFFFFFFFFAEFEFFFFFFFFFF3E
:10042000FFFFFFFFFFFFFFFFFFFEBAFFFFFFFFFF22
:10043000FFFFFFFFFFFFFFFFFFBAFEFFFFFFFFFF12
:10044000FFFFFFFFFFFFFFFFFFFEAAFFFFFFFFFF12
:10045000FFFFFFFFFFFFFFFFFFAAFEFFFFFFFFFF02
:10046000FFFFFFFFFFFFFFFFFFFE00FFFFFFFFFF9C
:10047000FFFFFFFFFFFFFFFFFF00FFFFFFFFFFFF8B
:10048000FFFFFFFFFFFFFFFFFFFFAEFFFFFFFFFFCD
:10049000FFFFFFFFFFFFFFFFFFAEFEFFFFFFFFFFBE
:1004A000FFFFFFFFFFFFFFFFFFFEBAFFFFFFFFFFA2
:1004B000FFFFFFFFFFFFFFFFFFBAFEFFFFFFFFFF92
:1004C000FFFFFFFFFFFFFFFFFFFEAAFFFFFFFFFF92
:1004D000FFFFFFFFFFFFFFFFFFAAFEFFFFFFFFFF82
:1004E000FFFFFFFFFFFFFFFFFFFE00FFFFFFFFFF1C
:1004F000FFFFFFFFFFFFFFFFFF00FFFFFFFFFFFF0B
:10050000FFFFFFFFFFFFFFFFFFFFAEFFFFFFFFFF4C
:10051000FFFFFFFFFFFFFFFFFFAEFEFFFFFFFFFF3D
:10052000FFFFFFFFFFFFFFFFFFFEBAFFFFFFFFFF21
:10053000FFFFFFFFFFFFFFFFFFBAFEFFFFFFFFFF11
:10054000FFFFFFFFFFFFFFFFFFFEAAFFFFFFFFFF11
:10055000FFFFFFFFFFFFFFFFFFAAFEFFFFFFFFFF01
:10056000FFFFFFFFFFFFFFFFFFFE00FFFFFFFFFF9B
:10057000FFFFFFFFFFFFFFFFFF00FFFFFFFFFFFF8A
:10058000FFFFFFFFFFFFFFFFFFFFAEAEAEAEAEAE61
:10059000AEAEAEAEAEAEAEAEAEAEFEFEFEFEFEFE9B
:1005A000FEFEFEFEFEFEFEFEFEFEBABABABABABA03
:1005B000BABABABABABABABABABAFEFEFEFEFEFE03
:1005C000FEFEFEFEFEFEFEFEFEFEAAAAAAAAAAAA43
:1005D000AAAAAAAAAAAAAAAAAAAAFEFEFEFEFEFE83
:1005E000FEFEFEFEFEFEFEFEFEFE0000000000001F
:1005F00000000000000000000000FFFFFFFFFFFF01
:10060000FFFFFFFFFFFFFFFFFFFFFFFFFFFFFFEF0A
:100610001745FFFFFFFFF1FFFFFFE7B7FFFFFFEF0A
:100620007B5DFFFFFFFFECFFFFFFC3CFFFFFFFEF8F
:100630003ACDFFFFFFFFEAFFFFFFCBCFFFFFFFEF4A
:100640007CDDFFFFFFFFEEFFFFFFC3B7FFFFFFE112
:100650001DC43FFFFFFFF1FFFFFFFFFFFFFFFFFF95
:10066000FFFFFFFFFFFFFFFFFFFFFFFFFFFFFFFF9A
:10067000FFFFFFFFFFFFFFFFFFFE7FFFFFFFFFFF0B
:10068000FFFFFFFFFFFFFFFFFFFEBFFFFFFFFFFFBB
:10069000FFFFFFFFFFFFFFFFFFFD5FFFFFFFFFFF0C
:1006A000FFFFFFFFFFFFFFFFFFFAAFFFFFFFFFFFAF
:1006B000FFFFFFFFFFFFFFFFFFF557FFFFFFFFFFFC
:1006C000FFFFFFFFFFFFFFFFFFEAABFFFFFFFFFFA3
:1006D000FFFFFFFFFFFFFFFFFFD557FFFFFFFFFFFC
:1006E000FFFFFFFFFFFFFFFFFFEAAFFFFFFFFFFF7F
:1006F000FFFFFFFFFFFFFFFFFFF55FFFFFFFFFFFB4
:10070000FFFFFFFFFFFFFFFFFFFABFFFFFFFFFFF3E
:10071000FFFFFFFFFFFFFFFFFFFD7FFFFFFFFFFF6B
:10072000FFFFFFFFFFFFFFFFFFFEBFFFFFFFFFFF1A
:10073000FFFFFFFFFFFFFFFFFFFD5FFFFFFFFFFF6B
:10074000FFFFFFFFFFFFFFFFFFFAAFFFFFFFFFFF0E
:10075000FFFFFFFFFFFFFFFFFFF557FFFFFFFFFF5B
:10076000FFFFFFFFFFFFFFFFFFEAABFFFFFFFFFF02
:10077000FFFFFFFFFFFFFFFFFFD557FFFFFFFFFF5B
:10078000FFFFFFFFFFFFFFFFFFEAAFFFFFFFFFFFDE
:10079000FFFFFFFFFFFFFFFFFFF55FFFFFFFFFFF13
:1007A000FFFFFFFFFFFFFFFFFFFABFFFFFFFFFFF9E
:1007B000FFFFFFFFFFFFFFFFFFFD7FFFFFFFFFFFCB
:1007C000FFFFFFFFFFFFFFFFFFFEBFFFFFFFFFFF7A
:1007D000FFFFFFFFFFFFFFFFFFFD5FFFFFFFFFFFCB
:1007E000FFFFFFFFFFFFFFFFFFFAAFFFFFFFFFFF6E
:1007F000FFFFFFFFFFFFFFFFFFF557FFFFFFFFFFBB
:10080000FFFFFFFFFFFFFFFFFFEAABFFFFFFFFFF61
:10081000FFFFFFFFFFFFFFFFFFD557FFFFFFFFFFBA
:10082000FFFFFFFFFFFFFFFFFFEAAFFFFFFFFFFF3D
:10083000FFFFFFFFFFFFFFFFFFF55FFFFFFFFFFF72
:10084000FFFFFFFFFFFFFFFFFFFABFFFFFFFFFFFFD
:10085000FFFFFFFFFFFFFFFFFFFD7FFFFFFFFFFF2A
:10086000FFFFFFFFFFFFFFFFFFFEBFFFFFFFFFFFD9
:10087000FFFFFFFFFFFFFFFFFFFD5FFFFFFFFFFF2A
:10088000FFFFFFFFFFFFFFFFFFFAAFFFFFFFFFFFCD
:10089000FFFFFFFFFFFFFFFFFFF557FFFFFFFFFF1A
:1008A000FFFFFFFFFFFFFFFFFFEAABFFFFFFFFFFC1
:1008B000FFFFFFFFFFFFFFFFFFD557FFFFFFFFFF1A
:1008C000FFFFFFFFFFFFFFFFFFEABFFFFFFFFFFF8D
:1008D000FFFFFFFFFFFFFFFFFFF55FFFFFFFFFFFD2
:1008E000FFFFFFFFFFFFFFFFFFFABFFFFFFFFFFF5D
:1008F000FFFFFFFFFFFFFFFFFFFD7FFFFFFFFFFF8A
:10090000FFFFFFFFFFFFFFFFFFFEBFFFFFFFFFFF38
:10091000FFFFFFFFFFFFFFFFFFFD5FFFFFFFFFFF89
:10092000FFFFFFFFFFFFFFFFFFFAAFFFFFFFFFFF2C
:10093000FFFFFFFFFFFFFFFFFFF557FFFFFFFFFF79
:10094000FFFFFFFFFFFFFFFFFFEAABFFFFFFFFFF20
:10095000FFFFFFFFFFFFFFFFFFD557FFFFFFFFFF79
:10096000FFFFFFFFFFFFFFFFFFEAAFFFFFFFFFFFFC
:10097000FFFFFFFFFFFFFFFFFFF55FFFFFFFFFFF31
:10098000FFFFFFFFFFFFFFFFFFFABFFFFFFFFFFFBC
:10099000FFFFFFFFFFFFFFFFFFFD7FDFF7FDFF7F93
:1009A000DFFFFFFFFFFFFFFFFFFEBFAFEBFAFEBF62
:1009B000AFEFFBFEFFBFEFEFFBFE5F57D5F57D5FAF
:1009C00057D7F5FD7F5FD7D7F5FDAEABAAEABAAE34
:1009D000ABABEAFABEAFABABEAFA55555555555538
:1009E0005555D5755D575555D575AAAAAAAAAAAA6F
:1009F000AAAAAAAAAAAAAAAAAAAAFFFFFFFFFFFF59
:100A0000FFFFFFFFFFFFFFFFFFFFFFFFFFFFFFEF06
:100A10001745FFFFFFFFF1FFFFFFE7B7FFFFFFEF06
:100A20007B5DFFFFFFFFECFFFFFFC3CFFFFFFFEF8B
:100A30003ACDFFFFFFFFEAFFFFFFCBCFFFFFFFEF46
:100A40007CDDFFFFFFFFEEFFFFFFC3B7FFFFFFE10E
:100A50001DC43FFFFFFFF1FFFFFFFFFFFFFFFFFF91
:100A6000FFFFFFFFFFFFFFFFFFFF00000000000090
:100A700000000000000000000000AFFFFFFFFFFFCC
:100A8000FFFFFFFFFFFFFFFFFFC547FFFFFFFFFF68
:100A9000FFFFFFFFFFFFFFFFFFF2A1FFFFFFFFFFD1
:100AA000FFFFFFFFFFFFFFFFFFF547FFFFFFFFFF18
:100AB000FFFFFFFFFFFFFFFFFFF2AFFFFFFFFFFFA3
:100AC000FFFFFFFFFFFFFFFFFFE54FFFFFFFFFFF00
:100AD000FFFFFFFFFFFFFFFFFF82AFFFFFFFFFFFF3
:100AE000FFFFFFFFFFFFFFFFFF0547FFFFFFFFFFC8
:100AF000FFFFFFFFFFFFFFFFFF82A1FFFFFFFFFFE1
:100B0000FFFFFFFFFFFFFFFFFFE540FFFFFFFFFFCE
:100B1000FFFFFFFFFFFFFFFFFFF2A1FFFFFFFFFF50
:100B2000FFFFFFFFFFFFFFFFFFF547FFFFFFFFFF97
:100B3000FFFFFFFFFFFFFFFFFFF2AFFFFFFFFFFF22
:100B4000FFFFFFFFFFFFFFFFFFE54FFFFFFFFFFF7F
:100B5000FFFFFFFFFFFFFFFFFF82AFFFFFFFFFFF72
:100B6000FFFFFFFFFFFFFFFFFFE543FFFFFFFFFF6B
:100B7000FFFFFFFFFFFFFFFFFFF2A0FFFFFFFFFFF1
:100B8000FFFFFFFFFFFFFFFFFFF547FFFFFFFFFF37
:100B9000FFFFFFFFFFFFFFFFFFF2AFFFFFFFFFFFC2
:100BA000FFFFFFFFFFFFFFFFFFE54FFFFFFFFFFF1F
:100BB000FFFFFFFFFFFFFFFFFF02AFFFFFFFFFFF92
:100BC000FFFFFFFFFFFFFFFFFFC547FFFFFFFFFF27
:100BD000FFFFFFFFFFFFFFFFFFF2A1FFFFFFFFFF90
:100BE000FFFFFFFFFFFFFFFFFFF547FFFFFFFFFFD7
:100BF000FFFFFFFFFFFFFFFFFFF2AFFFFFFFFFFF62
:100C0000FFFFFFFFFFFFFFFFFFE54FFFFFFFFFFFBE
:100C1000FFFFFFFFFFFFFFFFFF82AFFFFFFFFFFFB1
:100C2000FFFFFFFFFFFFFFFFFF0547FFFFFFFFFF86
:100C3000FFFFFFFFFFFFFFFFFF82A1FFFFFFFFFF9F
:100C4000FFFFFFFFFFFFFFFFFFE540FFFFFFFFFF8D
:100C5000FFFFFFFFFFFFFFFFFFF2A1FFFFFFFFFF0F
:100C6000FFFFFFFFFFFFFFFFFFF547FFFFFFFFFF56
:100C7000FFFFFFFFFFFFFFFFFFF2AFFFFFFFFFFFE1
:100C8000FFFFFFFFFFFFFFFFFFE54FFFFFFFFFFF3E
:100C9000FFFFFFFFFFFFFFFFFF82AFFFFFFFFFFF31
:100CA000FFFFFFFFFFFFFFFFFFE543FFFFFFFFFF2A
:100CB000FFFFFFFFFFFFFFFFFFF2A0FFFFFFFFFFB0
:100CC000FFFFFFFFFFFFFFFFFFF547FFFFFFFFFFF6
:100CD000FFFFFFFFFFFFFFFFFFF2AFFFFFFFFFFF81
:100CE000FFFFFFFFFFFFFFFFFFE54FFFFFFFFFFFDE
:100CF000FFFFFFFFFFFFFFFFFF02AFFFFFFFFFFF51
:100D0000FFFFFFFFFFFFFFFFFFC547FFFFFFFFFFE5
:100D1000FFFFFFFFFFFFFFFFFFF2A1FFFFFFFFFF4E
:100D2000FFFFFFFFFFFFFFFFFFF547FFFFFFFFFF95
:100D3000FFFFFFFFFFFFFFFFFFF2AFFFFFFFFFFF20
:100D4000FFFFFFFFFFFFFFFFFFE54FFFFFFFFFFF7D
:100D5000FFFFFFFFFFFFFFFFFF82AFFFFFFFFFFF70
:100D6000FFFFFFFFFFFFFFFFFF0547FFFFFFFFFF45
:100D7000FFFFFFFFFFFFFFFFFF82A1FFF7EFFF7EF7
:100D8000FFF7FFDFBFFDFBFFDCE540FBE3EFBE3E0F
:100D9000FBE3EF8FBEF8FBEF8E32A1BBE3CFBE3C8F
:100DA000FBE3CF8F3EF8F3EF8E1543B1C1C71C1C98
:100DB00071C1C7071C7071C70702A00000000000C6
:100DC000000000000000000000054AAAAAAAAAAA82
:100DD000AAAAAAAAAAAAAAAAAAAAA5555555555521
:100DE000555555555555555555554AAAAAAAAAAA15
:100DF000AAAAAAAAAAAAAAAAAAAA0000000000004F
:100E000000000000000000000000000000000000E2
:100E100000000000000000000000000000000000D2
:100E200000000000000000000000000000000000C2
:100E30000000FFF0000000000000000000000000C3
:100E40000001FFFC000000000000000000000000A6
:100E50000003FFFF00000000000000000000000091
:100E60000007FFFFC00000000000000000000000BD
:100E7000000FFFFFC00000000000000000000000A5
:100E8000001FFFFFE000000000000000007DF3F9FC
:100E9000FF3FFFFFE00000000000000000C7160F4A
:100EA000117E3FF0700000000000000001C71C0729
:100EB0001179DFF7B00000000000000001C71C0737
:100EC0001177EFE7D80000000000000001C71C47C1
:100ED0001177EFEFD80000000000000001C71C47A9
:100EE0001177EFEFD80000000000000001C71C4799
:100EF0001173CFE7980000000000000001C71C47F5
:100F0000117C3FF8780000000000000001C71C477A
:100F1000117FFB7FF80000000000000001C01C07EB
:100F2000017FFB7FF80000000000000001C01C07EB
:100F3000017FF33FF80000000000000001C01E0F19
:100F4000837FFFFFF80000000000000001FF9FFB0F
:100F5000FE3FFFFFF00000000000000001FF97F1DE
:100F6000FC1FFFFFE00000000000000001FF9000F8
:100F7000000FFFFFC0000000000000000003900011
:100F80000007FFFF000000000000000000039000C9
:100F90000001FFFE0001FC000000000000039000C3
:100FA0000000FDDA000304000000000000FF9000D4
:100FB0000000DDFE0003040000000000018017FFB8
:100FC000F000DFFE000304000000000003803C008E
:100FD0001C00FDDE000304000000000003FFFC0015
:100FE0000600FFFE000304000000000003FFDC0019
:100FF000033FFFFE000304000000000003FF9C000D
:101000000161C004FFC388000000000000001C0054
:1010100001E1C007802388000000000000001C1FC1
:1010200081E1C007801388000000000000001C1F41
:10103000C1E1C007800988000000000000001C1FFB
:10104000E1E1C3FF8E0988000000000000001C13CE
:10105000E1E1C3FB8F0988000000000000001C11C3
:10106000E1E1C3E38F8988000000000000001C104C
:10107000E1E1C2038B8988000000000000001C1021
:10108000E1E1C3E3898988000000000000001C1032
:10109000E1E1C023898988000000000000001C10E5
:1010A000E1E1C023898988000000000000001C10D5
:1010B000E1E1C023898988000000000000001C10C5
:1010C000E1E1C023898988000000000000001C10B5
:1010D000E1E1C3E3898988000000000000001C10E2
:1010E000E1E1C3C38989D0000000000000001C10AA
:1010F000E1E1C3838989D0000000000000001C10DA
:10110000E1E1C2038988D0000000000000001C104B
:10111000E1E1C2038988D0000000000000001C103B
:10112000E1E1C3FF8988D0000000000000001C102E
:10113000E1E1C0078F08D0000000000000001C1F84
:10114000C1E1C0078008D0000000000000001C00C2
:1011500001E1C0078010F0000000000000001C004A
:1011600001E1C0078020E0000000000000001C003A
:1011700003FFFFFFFFC000000000000000001C0094
:1011800006FFFFFBFFC070000000000000001C0015
:101190000CFDFFF3FF80D0000000000000001FFFE7
:1011A000F80000000000D0000000000000001FFF59
:1011B000F00000000000F0000000000000001FFF31
:1011C000E00000000000E00000000000000000005F
:1011D000000000000000000000000000000000000F
:1011E00000000000000000000000000000000000FF
:1011F00000000000000000000000FE820200FE82ED
:10120000FE00FE828E00FE8080FEBFA0A080BF8018
:10121000BF80B8A0BF80B0A0A0BFFE8080FE00FE4F
:1012200082FE00FE02FE00FE02FCBF8080BF80BF87
:1012300080BF80BF81BE80BFA09FE1E2E4E8E0D82C
:10124000BC7E80401076C41C32E187472717071BFD
:101250003D7E01020C6623384C87E0E0E0E0F0F8C8
:10126000FCFE00003066CC1830E0070707070F1FB0
:101270003F7F00000C6633180C07FFFFFFFFFFFFE6
:10128000FFFFFFFFFFFFFFFFFFFFFFFFFFFFFFFF6E
:10129000FFFFFFFFFFFFFF8007FFFFFFFFFFFFFFD5
:1012A000FFFFFFFFFFFFFF0001FFFFFFFFFFFFFF4B
:1012B000FFFFFFFFFFFFFE00007FFFFFFFFFFFFFBD
:1012C000FFFFFFFFFFFFFC00001FFF001FFFFFFFEE
:1012D000FFFFFFF1FFFFF800001FFE7FCFFFFFFFC2
:1012E000FFFFFFE5FFFFF000000FFCFFE400FFF051
:1012F0004180C00500602000000FFDFFF1CEFFE738
:101300001D3E1DC06F4F80E007C7F9FFF1CEFFC73C
:101310001C7F1DC07F1FC3100427F9E0F1CEFFC75B
:101320001C7F1DD2711E44080C13F9E0F1CEFFC7DB
:101330001C771DDE601C44080813F9ECF1CEFFC7D2
:101340001C771DDE609FC4080813F9ECF1CEFFC7BF
:101350001C771DDE6F9FC6180C33F9ECF1FEFFC73A
:101360001C771DDE6F9801E003C3F9ECF1FEFFC7A7
:101370001C771DDE6F99C0024003F9ECF1FEFFC738
:10138000FC7F1FDE6F9FC0024003F9E0F1CEFFC774
:10139000FC7F1FDE6F9FC0066003F9FFF1CEFFC721
:1013A000FC3E0F9E6F8F80000003F9FFF1CE8FC0CF
:1013B0000C00803E0FC020000007F9FFF1CE2FC0C7
:1013C0000D01C07E1FE07000000FF8FFE0002FC08D
:1013D0000DFFFFFFFFFFF800001FF87FC8012FFF80
:1013E0008DFFFFFFFFFFFC00007FFC001FFF0FFFD2
:1013F0008DFFFFFFFFFFFF00007FFE003FFF1FFF8D
:101400008DFFFFFFFFFFFF81127FFFFFFFFF1FE048
:101410000DFFFFFFFFFFFF91007FFFFFFFFFFFCFEB
:10142000FDFFFFFC0007FF90007FFF00007FFF8FA4
:10143000F9FFFFF9FFF1FF81107FFE7FFF3FFF8083
:1014400003FFFFF1FFFCFF80007FFCFFFF9FFF8099
:1014500007FFFFF1FFFE6000007FF9FFFFDFFF8065
:101460000FFFFFF1FFFF4F1FFC7FF3FFFFDFFFFFC9
:10147000FFFFFFF1FFFF0F1FFC7FE3FFFFD001061F
:1014800010618071F03F0F1FFCFFE3FFFFC71C706E
:10149000C70C3F31F01F0F1FFCFFE3F87FC71C781C
:1014A000C78C7FB1F00F0F1E00FFE3F03FC71C7821
:1014B000C78C73B1F60F0F1E03FFE3F03FC71C6C20
:1014C000C6CC73B1F70F0F1E0FFFE3F43FC71C6CC0
:1014D000C6CC7FB1F78F0F1EFFFFE3F600071C6637
:1014E000C66C7FB1F78F0F1E0FFFE3F600271C6756
:1014F000C67C73B1F78F0F1FEFFFE3F600671C6325
:10150000C63C73B1F78F0F1FEFFFE3F7FFE7FC63F4
:10151000C63C73B1F78F0F1FEFFFE3F60007FC61C6
:10152000C61C73B1F78F0F1FEFFFE3F6FFC7FC690F
:10153000C69C73B1F78F0F1E0FFFE3F4FFC3F8686B
:10154000C68C73B1F78F0F1E1FFFE3F0FFC0020CB4
:1015500000C00031F78F0F1E3FFFE3F0FFD0061CE5
:1015600021C20871F78F0F1EFFFFE3F0FFDFFFFFBF
:10157000FFFFFFF1F78F0F1EFFFFE3F007DFFFFF15
:10158000FFFFFFF1F78F0F1E01FFE3F007DFFFFF03
:10159000FFFFFFF1F78F0F1FFDFFE3F007DFFFFFF6
:1015A000FFFFFFF1F01F0F1FFDFFE3F807DFFFFF55
:1015B000FFFFFFF1FFFF0F1FFDFFE3FFFFDFFFFF57
:1015C000FFFFFFF1FFFF0F1FFDFFE3FFFFDFFFFF47
:1015D000FFFFFFF1FFFE000001FFE3FFFFDFFFFF62
:1015E000FFFFFFF1FFFC800003FFE1FFFF9FFFFF14
:1015F000FFFFFFF1FFF9810007FFE0FFFF3FFFFF63
:10160000FFFFFFF00003FFFFFFFFE07FFE7FFFFF14
:10161000FFFFFFF00007FFFFFFFFF00000FFFFFFED
:10162000FFFFFFF0000FFFFFFFFFF80001FFFFFFCC
:10163000FFFFFFFFFFFFFFFFFFFFFC0003FFFFFFB8
:10164000FFFFFFFFFFFFFFFFFFFFFFFFFFFFFFFFAA
:10165000FFFFFFFFFFFFFFFFFFFFFFFFFFFFFFFF9A
:10166000FFFFFFFFFFFFFFFFFFFFFFFFFFFFFFFF8A
:10167000FFFFFFFFFFFFFFFFFFFF00000000003E36
:101680005B4F5B3E3E6B4F6B3E1C3E7C3E1C183CF2
:101690007E3C181C577D571C1C5E7F5E1C00183C4E
:1016A0001800FFE7C3E7FF0018241800FFE7DBE797
:1016B000FF30483A060E2629792926407F0505077E
:1016C000407F05253F5A3CE73C5A7F3E1C1C0808DA
:1016D0001C1C3E7F14227F22145F5F005F5F06099F
:1016E0007F017F006689956A606060606094A2FFF8
:1016F000A29408047E040810207E201008082A1CEA
:1017000008081C2A08081E101010100C1E0C1E0CB5
:1017100030383E3830060E3E0E0600000000000055
:10172000005F00000007000700147F147F14242AC4
:101730007F2A122313086462364956205000080796
:101740000300001C2241000041221C002A1C7F1CB7
:101750002A08083E080800807030000808080808B9
:10176000000060600020100804023E5149453E0020
:10177000427F400072494949462141494D3318147E
:10178000127F1027454545393C4A494931412111CD
:1017900009073649494936464949291E00001400BF
:1017A00000004034000000081422411414141414E2
:1017B000004122140802015909063E415D594E7C40
:1017C0001211127C7F494949363E414141227F41F5
:1017D00041413E7F494949417F090909013E414153
:1017E00051737F0808087F00417F41002040413F3E
:1017F000017F081422417F404040407F021C027F4D
:101800007F0408107F3E4141413E7F090909063EA1
:101810004151215E7F091929462649494932030170
:101820007F01033F4040403F1F2040201F3F403882
:10183000403F631408146303047804036159494D5D
:1018400043007F4141410204081020004141417F93
:101850000402010204404040404000030708002009
:10186000545478407F284444383844444428384409
:1018700044287F385454541800087E090218A4A440
:101880009C787F0804047800447D40002040403D5F
:10189000007F1028440000417F40007C04780478D9
:1018A0007C080404783844444438FC18242418186C
:1018B000242418FC7C0804040848545454240404C8
:1018C0003F44243C4040207C1C2040201C3C4030B5
:1018D000403C44281028444C9090907C4464544CE4
:1018E000440008364100000077000000413608003F
:1018F00002010204023C2623263C1EA1A161123AE9
:101900004040207A38545455592155557941215435
:10191000547841215554784020545579400C1E523A
:1019200072123955555559395454545939555454DE
:10193000580000457C410002457D420001457C4045
:10194000F0292429F0F0282528F07C545545002062
:1019500054547C547C0A097F4932494949323248FF
:10196000484832324A4848303A4141217A3A424066
:101970002078009DA0A07D39444444393D4040403A
:101980003D3C24FF2424487E4943662B2FFC2F2B0B
:10199000FF0929F620C0887E0903205454794100AC
:1019A00000447D413048484A32384040227A007A2B
:1019B0000A0A727D0D19317D2629292F2826292909
:1019C000292630484D40203808080808080808082B
:1019D000382F10C8ACBA2F102834FA00007B000052
:1019E00008142A142222142A14089500220095AA09
:1019F000005500AAAA55AA55AA000000FF00101021
:101A000010FF00141414FF001010FF00FF1010F05E
:101A100010F0141414FC001414F700FF0000FF0071
:101A2000FF1414F404FC141417101F10101F101FBF
:101A30001414141F00101010F0000000001F1010EC
:101A400010101F10101010F010000000FF101010E8
:101A5000101010101010FF10000000FF140000FF05
:101A600000FF00001F10170000FC04F414141710EE
:101A7000171414F404F40000FF00F71414141414E1
:101A80001414F700F7141414171410101F101F1457
:101A90001414F4141010F010F000001F101F0000B8
:101AA000001F14000000FC140000F010F01010FFE4
:101AB00010FF141414FF141010101F00000000F089
:101AC00010FFFFFFFFFFF0F0F0F0F0FFFFFF00005E
:101AD000000000FFFF0F0F0F0F0F38444438447C05
:101AE0002A2A3E147E02020606027E027E02635508
:101AF0004941633844443C04407E201E2006027E57
:101B0000020299A5E7A5991C2A492A1C4C72017268
:101B10004C304A4D4D303048784830BC625A463DD2
:101B20003E494949007E0101017E2A2A2A2A2A4487
:101B3000445F444440514A444040444A51400000BC
:101B4000FF0103E080FF000008086B6B08361236C7
:101B50002436060F090F06000018180000001010A8
:101B6000003040FF0101001F01011E00191D171266
:101B7000003C3C3C3C00000000000000000200096A
:101B80000F0000030401000C000000000000000032
:101B9000000000000000000000080B00020202012B
:101BA00000090400000102020000052400100105E4
:101BB0002401010104240206052406000107058111
:101BC0000310004009040100020A0000000705029A
:101BD000024000000705830240000004030904419D
:101BE000726475696E6F204C4C430041726475627B
:101BF0006F7900120100020000004041233680008E
:101C0000010102030112010002EF020140412336EB
:101C10008000010102030100952311241FBECFEFB4
:101C2000DAE0DEBFCDBF11E0A0E0B1E0E4E7FFE421
:101C300002C005900D92A63EB107D9F727E0A6EEA7
:101C4000B1E001C01D92A737B207E1F71EE0CDE079
:101C5000DEE004C02197FE010E94FE23CC30D107B4
:101C6000C9F70E94B31A0C94B8270C940000CF92C5
:101C7000DF92EF92FF920F931F93CF93DF936C014C
:101C80007A018B01C0E0D0E0CE15DF0589F0D801E4
:101C90006D918D01D601ED91FC910190F081E02DC7
:101CA000C6010995892B11F47E0102C02196ECCF63
:101CB000C701DF91CF911F910F91FF90EF90DF90BF
:101CC000CF9008958091F301E091F101F091F2013C
:101CD000882349F0CF0102969093F2018093F1019D
:101CE000859194910895CF0102969093F20180938B
:101CF000F1018081918108958091E60108952F92EC
:101D00003F924F925F926F927F928F929F92AF928B
:101D1000BF92CF92DF92EF92FF920F931F93CF93D8
:101D2000DF9300D000D000D0CDB7DEB7DC016A3041
:101D3000A9F45A962C915A9756968D919C91579743
:101D400008E0209F800D911D112457969C938E933F
:101D5000569755961C921E925497D1C06D3009F437
:101D6000CEC05A96BC905A9759962C90599758962F
:101D70003C90589756962D913C9157973C832B83D6
:101D800054968D919C91559780389105C4F05A9640
:101D90002C915A97422F50E054968D919C915597D3
:101DA00036E0239F800D911D112455969C938E93B0
:101DB00054975B962C915B9721118EC0A0C00B812C
:101DC0001C81003411051CF79C0115E0B19E200D0B
:101DD000311D112412161306D4F68B2C912C2B8155
:101DE0003C8148E0B49E200D311D112412161306CB
:101DF00074F6E5E06E9F2001112460E070E065302C
:101E0000710539F0FB01E40DF51DE658F94EA4907B
:101E100001C0A12CEB80FC8008E0702EA0FC02C069
:101E2000622C01C0632C611009C0231007C0A69466
:101E30007A94E80CF91C7110F1CF45C09C01422F37
:101E4000481B4B15A0F7A701E42FF42FFE19FB1533
:101E5000B8F52038310588F54034510570F5E69520
:101E6000E695E695CE2ED12C8A01077011271A83AC
:101E70000983F601F695FE2FEE27F795E795E20F19
:101E8000F31F8F010C511D4F1E830D83E1E0F0E025
:101E9000098002C0EE0FFF1F0A94E2F7FA83E9837C
:101EA000662029F0F801D080C980CD2805C0CE2E4B
:101EB000C094F801D080CD20C0824F5F5F4FC4CF67
:101EC0002F5F3F4FBCCF6F5F7F4F880D991D6630EE
:101ED000710509F094CF5BCF6AEF64039001659FB1
:101EE000300D112420583F4F2817390744F4CD01F5
:101EF000ED91FC910190F081E02D6AE0099581E07F
:101F000090E026960FB6F894DEBF0FBECDBFDF91EE
:101F1000CF911F910F91FF90EF90DF90CF90BF90E6
:101F2000AF909F908F907F906F905F904F903F9079
:101F30002F9008950E94FB25EF92FF920F931F931D
:101F4000CF93DF93EC017B018A018881998100970F
:101F500029F02A813B8124173507F8F4B8016F5F17
:101F60007F4F0E943125009759F0998388831B8306
:101F70000A832C813D81232B81F4FC0110820DC04A
:101F800088819981009711F00E9499241982188202
:101F90001D821C821B821A8207C01D830C83B7011D
:101FA000888199810E940926CE01DF91CF911F91EE
:101FB0000F91FF90EF900895FC01808191810C9426
:101FC0009924EF92FF920F931F93CF93DF93CDB796
:101FD000DEB762970FB6F894DEBF0FBECDBF8C019F
:101FE000CB01F801118210821382128215821482B1
:101FF00050E09E012F5F3F4F7901B9010E94C82632
:10200000F70101900020E9F73197AF014E195F0900
:10201000B701C8010E949C0F62960FB6F894DEBF0C
:102020000FBECDBFDF91CF911F910F91FF90EF9029
:102030000895FC011182108213821282158214828B
:102040006115710551F0FB0101900020E9F731970E
:10205000AF01461B570B0C949C0F0895362F90E050
:10206000FC01E658F44E4491FC01EB51FF4F2491E2
:10207000FC01EE5EFE4F8491882309F451C0442395
:10208000E1F150E0FA013197EF30F105B0F5EA5A8D
:10209000FF4F0C94FE23909180009F7707C0909192
:1020A00080009F7D03C090918000977F9093800077
:1020B00024C094B59F7702C094B59F7D94BD1DC088
:1020C000909190009F7707C0909190009F7D03C0F2
:1020D00090919000977F909390000FC09091C000D6
:1020E0009F7703C09091C0009F7D9093C00005C072
:1020F0009091C200977F9093C200E82FF0E0EE0F1E
:10210000FF1FEC5FFE4FA591B4918FB7F894EC914F
:10211000311103C020952E2301C02E2B2C938FBF8D
:102120000895CF93DF9390E0FC01EB51FF4F249192
:10213000FC01EE5EFE4F8491882361F190E0880FF0
:10214000991FFC01E653FF4FC591D491FC01EC5F50
:10215000FE4FA591B491611109C09FB7F894888191
:10216000209582238883EC912E230BC0623061F48A
:102170009FB7F8943881822F809583238883EC91D0
:102180002E2B2C939FBF06C08FB7F894E8812E2B7F
:1021900028838FBFDF91CF9108953FB7F894809146
:1021A000DC029091DD02A091DE02B091DF0226B543
:1021B000A89B05C02F3F19F00196A11DB11D3FBF7F
:1021C000BA2FA92F982F8827820F911DA11DB11D0D
:1021D000BC01CD0142E0660F771F881F991F4A9509
:1021E000D1F708958F929F92AF92BF92CF92DF92D4
:1021F000EF92FF926B017C010E94CD104B015C01BC
:10220000C114D104E104F104F1F00E94CD10DC010D
:10221000CB0188199909AA09BB09883E9340A105F9
:10222000B10570F321E0C21AD108E108F10888EE87
:10223000880E83E0981EA11CB11CC114D104E104D6
:10224000F10419F7DDCFFF90EF90DF90CF90BF90B2
:10225000AF909F908F9008951F920F920FB60F929C
:1022600011242F933F938F939F93AF93BF938091AC
:10227000E7019091E801A091E901B091EA01309164
:10228000DB0223E0230F2D3720F40196A11DB11DA1
:1022900005C026E8230F0296A11DB11D2093DB0285
:1022A0008093E7019093E801A093E901B093EA01DC
:1022B0008091DC029091DD02A091DE02B091DF02FC
:1022C0000196A11DB11D8093DC029093DD02A093C5
:1022D000DE02B093DF02BF91AF919F918F913F914A
:1022E0002F910F900FBE0F901F901895CF92DF92F5
:1022F000EF92FF920F931F93CF93DF930E94620E92
:10230000811520E8920761F4809171008D7F8093A0
:10231000710010929100469847981092F40189C07C
:1023200021E02093F401813020E8920751F480915C
:10233000EF019091F0019093F2018093F1010E94DE
:10234000620E469897FD05C02091D402222309F41D
:102350006BC02091D302211167C021E02093D502E8
:10236000EC01DF77209769F481E08093D6024698EC
:102370003FE9C32E3FE0D32EE12CF12CCAEFD0E091
:1023800014C08E0120E030E060E472E48FE090E061
:10239000A90198010E941E2769017A0181E0C81AEB
:1023A000D108E108F1081092D602E091F206F0910E
:1023B000F3060995811103C081E08093D6028091D4
:1023C000D5028823A1F18091D602811130C0479AAD
:1023D0000E94620E009771F09C01DE010E94A92705
:1023E000DC01CB0129E0B595A795979587952A95AE
:1023F000D1F703C08FEF9FEFDC01109290002AE02D
:1024000020939100D0929900C09298008093D702B7
:102410009093D802A093D902B093DA028091710010
:1024200082608093710005C01092D50299CF4798C1
:10243000CFCFDF91CF911F910F91FF90EF90DF9061
:10244000CF9008951F920F920FB60F9211242F93E1
:102450003F934F935F936F937F938F939F93AF932C
:10246000BF93EF93FF938091D7029091D802A091F0
:10247000D902B091DA02892B8A2B8B2B81F18091C2
:10248000D60281110BC098B180E4892788B9809168
:10249000D502882319F088B1805888B98091D70275
:1024A0009091D802A091D902B091DA0218161906BB
:1024B0001A061B06B4F48091D7029091D802A0911D
:1024C000D902B091DA020197A109B1098093D7022C
:1024D0009093D802A093D902B093DA0202C00E946E
:1024E0007611FF91EF91BF91AF919F918F917F9165
:1024F0006F915F914F913F912F910F900FBE0F9071
:102500001F9018959C01E1E7F0E090819D7F9083FA
:102510001092F301E4EEF6E0F093F201E093F101A2
:10252000F093F001E093EF013183208373836283A2
:1025300080E090E8958384830C9476118FB12CB160
:1025400093B130E02095309520743327A90123E022
:10255000559547952A95E1F7292F30E0209530953C
:10256000207133273595279535952795242B809510
:10257000807F822B08950F931F93CF93DF931F9239
:10258000CDB7DEB7182F062F61E089E049830E949E
:102590002E1068EC70E080E090E00E94F21060E0A5
:1025A000802F0E942E1082E090E00E94082749812F
:1025B000481729F0642F82E090E00E94102764EF12
:1025C00071E080E090E00E94F21061E0802F0E94B4
:1025D0002E100E949E1281238117D9F30F90DF9154
:1025E000CF911F910F91089564E670E084E690E02A
:1025F0000C94821269E170E082E390E00C94821204
:10260000CF93DF9388E090E09093200180931F01A7
:1026100090931D0180931C011092F90181E0809339
:102620001E011092F8011092F7011092D20210923E
:10263000FA011092FD0181E090E09093FF018093F8
:10264000FE010E945C26C9E0D0E0BE010E94EA23A0
:10265000FC01EE0FFF1FEA59FE4F8081918190939C
:102660001501809314010E945C26BE010E94EA239A
:10267000FC01EE0FFF1FEA59FE4F8081918190937C
:102680001101809310010E945C26BE010E94EA2382
:10269000009711F481E090E0880F991FFC01EA593E
:1026A000FE4F8081918190930D0180930C010E94D7
:1026B0005C2669E070E00E94EA23009711F481E053
:1026C00090E0880F991FFC01EA59FE4F80819181AB
:1026D00090930901809308010E945C26C3E0D0E03A
:1026E000BE010E94EA23FC01EE0FFF1FE25AFE4FDB
:1026F0008081918190931301809312010E945C2646
:10270000BE010E94EA23FC01EE0FFF1FE25AFE4FBA
:102710008081918190930F0180930E010E945C262D
:10272000BE010E94EA23FC01EE0FFF1FE25AFE4F9A
:102730008081918190930B0180930A010E945C2615
:10274000BE010E94EA23FC01EE0FFF1FE25AFE4F7A
:1027500080819181909307018093060180911401FB
:102760009091150148972CF48091010181111092EC
:102770000101809110019091110148972CF48091F2
:10278000EE0181111092EE011092000181E0809320
:10279000ED011092F6011092F50180911F019091C8
:1027A00020010296909319018093180180911C01D9
:1027B00090911D0102969093170180931601C3E03A
:1027C000D0E0D0931B01C0931A018AE090E090936F
:1027D0000301809302010E945C26BE010E94EA234D
:1027E0009093FC018093FB010E945C26BE010E9435
:1027F000EA239093EC018093EB0168EC70E080E0B9
:1028000090E0DF91CF910C94F210FC018091E302F3
:10281000811103C08FEF9FEF08959FB7F89482E076
:102820008093E9002091F20030E01216130614F4B0
:1028300021E030E02115310559F0289884E6809395
:10284000E2028091F10080838091F200882319F0E8
:102850009FBFC90108958BE68093E800F9CFCF931D
:10286000DF931F92CDB7DEB76983DC01ED91FC9158
:102870000280F381E02D41E050E0BE016F5F7F4FA9
:1028800009950F90DF91CF91089583E08093E9003F
:102890008091F200882319F08AE38093E80008957C
:1028A000CF93DF931F92CDB7DEB7FC01848595856A
:1028B00097FD05C02FEF3FEF358724870BC0CE0172
:1028C00001960E940514019719F4898190E002C0D5
:1028D0008FEF9FEF0F90DF91CF9108950F931F938C
:1028E000CF93DF931F92CDB7DEB78C01FC018485B7
:1028F000958597FF0EC0CE0101960E9405140197A1
:1029000019F4298130E002C02FEF3FEFF80135873D
:102910002487F801848595850F90DF91CF911F91D1
:102920000F910895FC018485958597FD0BC09FB795
:10293000F89482E08093E9008091F2009FBF90E0DC
:10294000019608959FB7F89482E08093E900809102
:10295000F2009FBF90E008958F929F92AF92BF9236
:10296000CF92DF92EF92FF920F931F93CF93DF935B
:102970005C016B018A0180912B01882309F45EC000
:102980008091E302882309F459C08091E10280FF1D
:1029900005C08091E00082608093E000E8018AEF4A
:1029A000F82E93E0E92E2FE3822E3AE3932E209720
:1029B00009F43DC08FB7F894E092E9009091E800E7
:1029C00095FF06C09091F200282D291B922F01C07F
:1029D00090E08FBF91110AC0FA94FF2079F161E075
:1029E00070E080E090E00E94F210E1CF292F30E00B
:1029F000C217D3070CF49C2F8FB7F894E092E9002C
:102A00002091E80025FF11C0292F30E0C21BD30B15
:102A1000F601915020F041914093F100FACFC20E9F
:102A2000D31E9091E80095FF13C08FBFC0CF5D9873
:102A300084E68093E0021016110644F081E090E0F5
:102A4000F5019383828380E090E005C0C80103C054
:102A50009092E800EACFDF91CF911F910F91FF9004
:102A6000EF90DF90CF90BF90AF909F908F900895A0
:102A70002F923F924F925F926F927F928F929F928E
:102A8000AF92BF92CF92DF92EF92FF920F931F937C
:102A9000CF93DF93CDB7DEB728970FB6F894DEBF9C
:102AA0000FBECDBF4A01622E712C9C01260D371D31
:102AB00037FDCCC0803891050CF0C8C09B01200FB9
:102AC000311D37FDC3C0603471050CF0BFC0AB01D0
:102AD00077FF04C044275527461B570B47705527DF
:102AE0009B0177FF02C0295F3F4FE3E035952795B3
:102AF000EA95E1F777FF08C02150310968E070E0FE
:102B0000DB01A41BB50BAD01602F6695669566953C
:102B100070E0077011F06F5F7F4FDB01A20FB31FF2
:102B2000BA83A98329015694542C4424579447947A
:102B3000480E591EE12CF12CA12CB12C1201B0E849
:102B40002B0E311C68E070E0DB01A41BB50BBC83CD
:102B5000AB8369817A812617370709F477C028305B
:102B6000310509F473C02F3FBFEF3B070CF462C07F
:102B7000B1016A0D7B1DDB01AC51BD4FBE83AD833E
:102B8000D501A40DB51DAC51BD4F8C0160E070E0C6
:102B9000661577050CF04EC00038110509F44AC0DF
:102BA00017FD3DC02F3FEFEF3E0709F44BC0FB017F
:102BB000EE0DFF1DE80DF91DE491F0E0042E02C0BA
:102BC000EE0FFF1F0A94E2F7E095F095CC90D12C20
:102BD000EC21FD21EC934115510509F12730310518
:102BE000F1F0FB01EE0DFF1DE80DF91DE491CE2E75
:102BF000D12C0B8002C0D594C7940A94E2F7F60159
:102C0000E095F095F887EF83ED81FE81C080D12CAF
:102C1000EF81F885CE22DF22ED81FE81C0826F5FD9
:102C20007F4FED81FE813196FE83ED830F5F1F4F55
:102C30001196AECF2F5F3F4FF0E8AF0EB11CE60C00
:102C4000F71C87CF4115510561F6E9CF28960FB6DD
:102C5000F894DEBF0FBECDBFDF91CF911F910F91D2
:102C6000FF90EF90DF90CF90BF90AF909F908F90AC
:102C70007F906F905F904F903F902F900895FC0150
:102C8000448155816081718184EF96E00C94370E08
:102C9000CF92DF92EF92FF920F931F93CF93DF9328
:102CA000809164008E7F8093640087EC80937C0029
:102CB00080E280937B0062E070E080E090E00E9420
:102CC000F21080917A00806480937A0080917A007B
:102CD00086FDFCCFC0917800D0917900C095D09549
:102CE0008EE580937C0062E070E080E090E00E94DE
:102CF000F21080917A00806480937A0080917A004B
:102D000086FDFCCF00917800109179000E94CD10D3
:102D10009B01AC01209530954095509500951095FC
:102D20000C9FD0010D9FB00D1C9FB00D11240E946F
:102D30003D276B017C010E94CD106C0D7D1D8E1D09
:102D40009F1D611571058105910511F00E94BF2637
:102D500080916400816080936400DF91CF911F9126
:102D60000F91FF90EF90DF90CF900895CF92DF9278
:102D7000EF92FF920F931F93CF93DF93A0E0B0E009
:102D800040E050E001E0C0E8D0E0642F6695669531
:102D9000669520E8629FB00111249A0127703327BD
:102DA000102F01C0110F2A95EAF720E030E0F90159
:102DB000F595E795F595E795F595E795EA0FFB1FEE
:102DC000E80FF91FF4917901E7E0EE22FF246E018C
:102DD00002C0D594C794EA94E2F7EF2FF0E0EC211B
:102DE000FD21EF2B41F0F901E60FF71FEC51FD4FEC
:102DF000F080F12AF0822F5F3F4F20383105B9F67D
:102E00004F5F5F4F50964034510509F0BECFDF91C0
:102E1000CF911F910F91FF90EF90DF90CF90089589
:102E200020E084EE92E0B22FB111BFEFFC0100244C
:102E3000B193B193B193B1930394D1F70895809175
:102E4000140781110DC082E08093100784E0809305
:102E50001107109213071092120781E08093140754
:102E600080E197E008954091710750917207209199
:102E70006F073091700742175307B4F49091E80040
:102E80009570E1F39091E80092FD19C08093F100F4
:102E9000809171079091720701968F739927892B02
:102EA00019F48EEF8093E80080917107909172077A
:102EB0000196909372078093710781E0089580E0F6
:102EC0000895CF92DF92EF92FF920F931F93CF93CB
:102ED000DF931F92CDB7DEB7182F062FE42E862F73
:102EE000880F8E5F99830E94331783E00E94331707
:102EF000F12EC12E9981D92E8C2D8F19801798F41F
:102F0000F601E7FE02C0849101C080810E94331760
:102F1000182F80E00E9433178123FFEFCF1ADF0ABA
:102F20008111EACF01C081E00F90DF91CF911F9115
:102F30000F91FF90EF90DF90CF900895DF92EF9286
:102F4000FF920F931F93CF93DF93D82E8A017B01BB
:102F5000E40EF51EEB01CE15DF0571F0D7FE03C0C0
:102F6000FE01849101C088810E943317219681114E
:102F7000F2CF8FEF9FEF01C0C801DF91CF911F917A
:102F80000F91FF90EF90DF900895615030F0209105
:102F9000F100FC0120830196F8CF289884E6809305
:102FA000E20208950F931F93CF93DF931F92CDB743
:102FB000DEB782E0898342E450E069E97BE180E8A2
:102FC0000E949E170E941F17DC0112960D911C9102
:102FD00013970115110569F0D801ED91FC9102805C
:102FE000F381E02DBE016F5F7F4FC801099597FF08
:102FF00007C089810F90DF91CF911F910F910895A4
:10300000F80100851185E5CF1F920F920FB60F9240
:1030100011248F939F938091E1009091E100937F21
:103020009093E10083FF0FC01092E90091E090932C
:10303000EB001092EC0092E39093ED001092E3020B
:1030400098E09093F00082FF20C093E09093E90015
:103050009091F200992319F09AE39093E8009091EF
:10306000E002992339F09091E00291509093E002B0
:10307000992389F19091E202992339F09091E2022B
:1030800091509093E202992341F184FF10C0809106
:10309000E2008E7E81608093E2008091E1008F7E6D
:1030A0008093E1008091E1028E7E806111C080FFFB
:1030B00016C08091E2008E7E80618093E200809154
:1030C000E1008E7E8093E1008091E1028E7E81603E
:1030D0008093E10204C05D9ACDCF289AD6CF9F910C
:1030E0008F910F900FBE0F901F9018951F920F9207
:1030F0000FB60F921124CF92DF92EF92FF920F93AF
:103100001F932F933F934F935F936F937F938F936F
:103110009F93AF93BF93EF93FF93CF93DF93CDB77D
:10312000DEB76C97DEBFCDBF1092E9008091E8005A
:1031300083FFFAC168E0CE0145960E94C51782EF71
:103140008093E8008D8987FF05C09091E80090FF8B
:10315000FCCF03C09EEF9093E800982F907609F083
:10316000C6C09E892F89188D91110CC0803829F412
:1031700080916D078093F10002C01092F1001092CF
:10318000F10047C1422F50E0512B913051F4811191
:1031900040C14130510509F03CC180916D078D7FE0
:1031A0000BC0933061F4811134C14130510509F0F5
:1031B00030C180916D07826080936D072AC1953080
:1031C00041F48091E80080FFFCCF20682093E30069
:1031D00020C1963009F05FC0EB8CFC8C1092E900A6
:1031E0001092720710927107123091F510927007C9
:1031F00010926F070E94D21799E0BE016F5F7F4F58
:10320000DB01E92F1D92EA95E9F799831A8391E092
:103210009E8390EA98879AEF998720917107309161
:103220007207275F3F4F3C832B838D831092E90009
:103230001092720710927107F0927007E0926F0778
:1032400049E050E080E00E949E170E94D217E1C042
:10325000F0927007E0926F070E941F17DC01129630
:10326000ED90FC901397E114F10409F4C0C0D7016C
:10327000ED91FC910480F581E02DBE016B5E7F4FE6
:10328000C7010995009719F00CF0C3C0C6C0F7013B
:10329000E084F184E8CF973009F4BFC0983021F47E
:1032A00081E08093F100B5C0993009F0B2C083701D
:1032B00009F0B3C0E7E9F1E081E021E036E3908175
:1032C000992361F08093E9002093EB009191909312
:1032D000EC003093ED008F5F873089F78EE78093A5
:1032E000EA001092EA008F898093E30292C08B8DEE
:1032F0009C8D1092E90010927207109271079093C2
:10330000700780936F07898D811156C08E899D89C2
:10331000913A59F4813209F080C047E050E064E20C
:1033200071E080E00E949E1774C0913209F075C070
:10333000833289F4888D90E0982F88272F89822BFB
:10334000A0E0B0E080932C0190932D01A0932E017A
:10335000B0932F015EC0803269F48091E80082FF53
:10336000FCCF67E084E291E00E94C5178BEF809369
:10337000E80006C0823209F04CC08F8980932B018F
:1033800080916C07882319F0EEEFFAE002C0E0E0CC
:10339000F8E08091240190912501A0912601B0913F
:1033A0002701803B9440A105B10509F088C08091B8
:1033B0002B0180FFA0C083C00E941F17DC01129662
:1033C0000D911C9113970115110539F1D801ED915B
:1033D000FC910190F081E02DBE016B5E7F4FC80132
:1033E0000995811116C0F80100851185ECCF1130C7
:1033F000C1F0133091F48F89882309F455C08230CD
:10340000E9F440E867E08BEE9BE10E9461178823B6
:1034100021F08EEF8093E80087C081E28093EB007B
:1034200083C08B8D9C8D089711F410936E0780914B
:103430006E07811136C063EF7BE138C0813029F41B
:1034400040E86BE08FED9BE1E0CF833031F70E94E5
:103450001F17DC011296ED90FC9013978E010F5F01
:103460001F4F6801E114F10479F0D701ED91FC914F
:103470000680F781E02DB801C7010995080F111DDD
:10348000F701E084F184EECFD8011C92F60101909F
:103490000020E9F73197BF016C197D0940E0C601B2
:1034A000B4CF65E07CE102C06BED7BE16115710595
:1034B00009F4B3CFFB01449150E080E833CF0FB65D
:1034C000F894A895809160008861809360001092C4
:1034D00060000FBEA895EE3F2AE0F20739F0809118
:1034E000FE0A9091FF0A9183808393CF1092FF0A86
:1034F0001092FE0A8ECFEE3F8AE0F80731F080810D
:1035000091819093FF0A8093FE0A87E797E7918362
:1035100080839BE088E10FB6F894A89580936000C3
:103520000FBE9093600075CF6C960FB6F894DEBF17
:103530000FBECDBFDF91CF91FF91EF91BF91AF91C2
:103540009F918F917F916F915F914F913F912F91BB
:103550001F910F91FF90EF90DF90CF900F900FBED3
:103560000F901F901895CF93DF93CDB7DEB72A97B2
:103570000FB6F894DEBF0FBECDBF789484B58260DD
:1035800084BD84B5816084BD85B5826085BD85B507
:10359000816085BD80916E00816080936E00109285
:1035A0008100809181008260809381008091810000
:1035B0008160809381008091800081608093800091
:1035C0008091910082608093910080919100816050
:1035D0008093910080919000816080939000809111
:1035E000C10084608093C1008091C100826080939B
:1035F000C1008091C10081608093C1008091C300AF
:1036000081608093C3008091C00082608093C0007D
:103610008091C20081608093C20080917A008460B2
:1036200080937A0080917A00826080937A00809102
:103630007A00816080937A0080917A00806880931C
:103640007A001092E30210926D071092E1028091CD
:10365000D70081608093D70080EA8093D80089B535
:10366000806189BD89B5826089BD09B400FEFDCF46
:1036700061E070E080E090E00E94F2108091D8005C
:103680008F7C80618093D8008091E000807F809360
:10369000E0008091E1008E7E8093E1008DE08093D8
:1036A000E200559A209AEEEFFFE7859194918B3FC7
:1036B0009C4D19F481E080936C071FB7F8948091BA
:1036C0000002811127C0E3E2F1E08491E6EFF0E02F
:1036D0009491E82FF0E0EE0FFF1FE653FF4FA59106
:1036E000B491EC91E92321F461E081E10E942E1074
:1036F00061E081E10E9491108CB580618CBD8CB538
:1037000080648CBD61E08FE00E94911061E080E1F7
:103710000E949110809100028F5F809300021FBF72
:1037200001E311E0F80184910E5F1F4F319664911F
:10373000882319F00E949110F5CF61E086E00E9485
:103740002E1061E070E080E090E00E94F21060E0F6
:1037500086E00E942E106AE070E080E090E00E9417
:10376000F21061E086E00E942E10EEE1F1E0E491BB
:10377000F0E0EE0FFF1FEC5FFE4F85919491909368
:10378000060280930502E1EFF0E0E491E093040289
:10379000E6E1F1E0E491F0E0EE0FFF1FEC5FFE4F99
:1037A000859194919093030280930202E9EEF0E0F8
:1037B000E491E09301028CB58C7F8CBD8DB5816066
:1037C0008DBDE0910502F091060290818091040286
:1037D000982B9083A0910202B09103022C919091BA
:1037E0000102909592239C939081809589238083F8
:1037F000E8EDF0E08DE08E0F94919EBD00000DB4D9
:1038000007FEFDCF9EB531968E13F6CFE0910202F2
:10381000F0910302908180910102892B8083E091D5
:103820000502F0910602908180910402809589231F
:103830008083809164008160809364008091640043
:10384000826080936400809164008068809364004B
:103850008091640080648093640080916500816041
:10386000809365000E949E1282FF1DC060E089E087
:103870000E942E100E949E128478843821F44FEF0B
:103880006BE00E94BB120E949E128471843121F46D
:1038900040E06AE00E94BB1268EC70E080E090E0DB
:1038A0000E94F210DFCF61E089E00E942E1082E0DA
:1038B00090E00E940827882359F061E085E00E948B
:1038C000911061E08DE00E94911081E08093E6010B
:1038D00081E28093FD060E94481600ECA02EBB24D6
:1038E000BA9483E0882E912C22242394312CB8E0C2
:1038F0004B2E512C12E0C12ED12C2FB7F894809171
:10390000E7019091E801A091E901B091EA012FBF90
:1039100020910607222391F02091FE06F82FF21B3A
:10392000F09307072091FB063091FC062F5F3F4F75
:103930003093FC062093FB06109206074091020785
:10394000509103076091040770910507841795074C
:10395000A607B70778F4481B423008F4C4C683B7FB
:10396000817F83BF83B7816083BF889583B78E7F54
:1039700083BFB9C62091FD06AC01BD01420F511DA8
:10398000611D711D40930207509303076093040764
:10399000709305078093FE069093FF06A09300079F
:1039A000B093010781E0809306070E9410171092E0
:1039B0000B0710920A0710920907109208070E943D
:1039C000101710920B0710920A0710920907109215
:1039D00008070091FE011091FF010130110509F463
:1039E000AEC00230110551F1012B09F01EC58AE766
:1039F00092E10E94B6168091D10200E120E1882375
:103A000019F04AE552E102C04AE352E16FE270E088
:103A10008DE190E00E9438158091230100E120E1C2
:103A2000811103C04AE152E102C04AEF51E16FE265
:103A300070E082E390E00E943815F7C40CE010E0DB
:103A4000109309070093080710930B0700930A07C8
:103A50006DE971E0CE0101960E941910CE01019628
:103A60000E943F16CE0101960E94DC0F10930907B9
:103A70000093080784E190E090930B0780930A0776
:103A80006FEA71E0CE0101960E941910CE010196F5
:103A90000E943F16CE0101960E94DC0F1093090789
:103AA000009308078CE190E090930B0780930A073E
:103AB00061EC71E0CE0101960E941910CE010196D1
:103AC0000E943F16CE0101960E94DC0F1093090759
:103AD0000093080784E290E090930B0780930A0715
:103AE00064ED71E0CE0101960E941910CE0101969D
:103AF0000E943F16CE0101960E94DC0F80E490E008
:103B0000909309078093080788E390E090930B0750
:103B100080930A076BED71E0CE0101960E941910A7
:103B2000CE0101960E943F16CE0101960E94DC0F45
:103B300066E970E080E090E00E94F21076C4809127
:103B4000FD018823A1F08AEF9DE00E94B6168091C6
:103B5000FB069091FC066DE770E00E94D623892B4E
:103B600009F063C41093D0020093CF025CC480912B
:103B7000FB019091FC01009719F48AEF99E007C0CE
:103B8000019719F48AEF95E002C08AEF91E00E9454
:103B9000B6168091FA01882329F0FFE2EF2EF2E0B9
:103BA000FF2E8BC00E944816EFE2EE2EE2E0FE2EC2
:103BB0000E945C2669E070E00E94EA238C010E946A
:103BC0005C26B4010E94EA230115110531F4009727
:103BD00021F482E090E001E010E0000F111FF801F5
:103BE000EA59FE4F20813181D70111963C932E93E3
:103BF000880F991FFC01E25AFE4F80819181139634
:103C00009C938E931297B4E0EB0EF11CEFECEE1642
:103C1000E2E0FE0669F607E012E00E945C267C0105
:103C20000E945C269C01C701B4010E94EA23FC01AA
:103C3000EE0FFF1FEA5AFE4F80819181D8018D93CC
:103C40009C93C901B6010E94EA23FC01EE0FFF1FFD
:103C5000E05BFE4F80819181F801938382830C5F4A
:103C60001F4FF2E00F321F07C1F60E945C26B2011F
:103C70000E94EA23FC01EE0FFF1FE25CFE4F8081F1
:103C80009181909305018093040181E08093FA0172
:103C90006DC02081318128173907C9F43496B2E00C
:103CA000EF32FB07B1F76623F1F0F4E0EF0EF11C01
:103CB0002FECE21622E0F20691F1D7018D919C9152
:103CC00027E0622E22E0722EF30161E0E2CF428112
:103CD0005381D70112962D913C91139742175307A8
:103CE000E9F260E0DBCF2091EB013091EC01F701CC
:103CF0006281738108E02115310521F428E040E755
:103D000051E00AC02130310521F428E048E651E0B5
:103D100003C028E040E651E00E943815C6CFF30109
:103D2000808191819C01277F232B61F062817381C7
:103D30009B01277F232B31F008E028E048E551E084
:103D40000E943815F4E06F0E711C2FE2621622E01B
:103D5000720629F708E028E040E551E060E370E0F2
:103D600080910401909105010E9438158091F9011C
:103D7000882371F060911C0170911D0108E028E01A
:103D800040E951E080911F01909120010E94381577
:103D900080911E01882371F060911C0170911D01BA
:103DA00008E028E048E851E080911F01909120014F
:103DB0000E9438158091F801882371F060911C01F0
:103DC00070911D0108E028E040E851E080911F015A
:103DD000909120010E9438158091F701882371F09D
:103DE00060911C0170911D0108E028E048E751E056
:103DF00080911F01909120010E94381520910101AE
:103E00008091140190911501222341F08930910590
:103E100014F0019707C0109201010CC08037910582
:103E200034F40196909315018093140103C081E04E
:103E3000809301018091FB069091FC0666E070E0A2
:103E40000E94D6239C0180911401909115016091EC
:103E500012017091130108E0232B21F428E040ECBB
:103E600051E003C028E048EB51E00E943815209152
:103E7000EE018091100190911101222341F08930CF
:103E8000910514F0019707C01092EE010CC0803725
:103E9000910534F40196909311018093100103C0B1
:103EA00081E08093EE012091FB063091FC062370A7
:103EB0003327809110019091110160910E01709152
:103EC0000F0108E0232B21F428E040EB51E003C070
:103ED00028E048EA51E00E943815209100018091C5
:103EE0000A0190910B01222341F08033910514F4D3
:103EF000019607C0109200010CC08930910534F082
:103F0000019790930B0180930A0103C081E0809395
:103F100000012091FB063091FC062370332760914D
:103F20000A0170910B0180910C0190910D0108E044
:103F3000232B21F428E040EA51E003C028E048E9BF
:103F400051E00E9438152091ED0180910601909179
:103F50000701222341F08033910514F4019607C034
:103F60001092ED010CC08930910534F001979093C7
:103F700007018093060103C081E08093ED01209149
:103F8000FB063091FC062370332760910601709187
:103F90000701809108019091090108E0232B21F489
:103FA00028E048E951E003C028E040EA51E00E94DF
:103FB000381580E190E090930907809308071092EC
:103FC0000B0710920A0760911A0170911B014AE0D9
:103FD000CE0101960E94E10FCE0101960E943F168C
:103FE000CE0101960E94DC0F8091F601882309F42E
:103FF00059C08091F5016090160170901701E09012
:104000001801F090190104E024E0811107C04CEC84
:1040100051E0B301C7010E94381544C048EC51E09B
:10402000B301C7010E943815B701625071097A8740
:104030006987930122503109D3011A9776E0670E00
:10404000711CC7010A9798878F8396E0E90EF11CCF
:10405000EFE2F2E0408151818281938169857A8526
:104060004617570709F056C311E08A179B0709F056
:1040700010E08615970509F411E06F8178854617E1
:10408000570709F449C34E155F0509F445C31111DB
:1040900047C3349672E0EF3CF707E1F61092F60161
:1040A0001092F50180912301882319F06FE070E0F0
:1040B00002C06EE170E08091FB069091FC060E94C8
:1040C000D623892BA9F580910201909103018230BA
:1040D000910534F00197909303018093020128C069
:1040E0008091D1028823F1F0809171008D7F8093BF
:1040F000710081E08093F30180ED91E09093F201F3
:104100008093F1019093F0018093EF010E9476116A
:104110008091F4018111FCCF62E370E080E090E0D7
:104120000E94F2103092D0022092CF020E9400131F
:1041300084E490E0909309078093080710920B079E
:1041400010920A076091CF027091D0024AE0CE012E
:1041500001960E94E10FCE0101960E943F16CE010A
:1041600001960E94DC0F8CE690E090930907809303
:10417000080710920B0710920A07609102017091D4
:1041800003014AE0CE0101960E94E10FCE010196A3
:104190000E943F16CE0101960E94DC0F1092FD0195
:1041A0000FE212E0FF24F394D8014D915C91119736
:1041B00012962D913C91139780911F0190912001AF
:1041C000BA016B5F7F4F68177907CCF005968417AB
:1041D0009507ACF080911C0190911D01A9014B5FE6
:1041E0005F4F481759075CF00596821793073CF01C
:1041F000F092FD018091D10281110E94F4120C5FB6
:104200001F4FB2E00F3C1B0779F607E012E0FF24D6
:10421000F394F801408151812281338180911F0103
:1042200090912001BA016B5F7F4F68177907CCF03E
:10423000059684179507ACF080911C0190911D01A3
:10424000A9014B5F5F4F481759075CF0059682172D
:1042500093073CF0F092FD018091D10281110E9400
:10426000F4120C5F1F4FF2E00F321F0791F62091FE
:1042700014013091150180911F0190912001A90135
:104280004A5F5F4F48175907F4F006968217930765
:10429000D4F0209112013091130180911C01909172
:1042A0001D01A9014A5F5F4F4817590764F0069640
:1042B0008217930744F081E08093FD018091D10241
:1042C00081110E94F412209110013091110180910E
:1042D0001F0190912001A9014A5F5F4F48175907BC
:1042E000F4F0069682179307D4F020910E013091D6
:1042F0000F0180911C0190911D01A9014A5F5F4F40
:104300004817590764F006968217930744F081E036
:104310008093FD018091D10281110E94F4122091BD
:104320000C0130910D0180911F0190912001A90194
:104330004A5F5F4F48175907F4F0069682179307B4
:10434000D4F020910A0130910B0180911C019091D1
:104350001D01A9014A5F5F4F4817590764F006968F
:104360008217930744F081E08093FD018091D10290
:1043700081110E94F412209108013091090180916D
:104380001F0190912001A9014A5F5F4F481759070B
:10439000F4F0069682179307D4F02091060130912D
:1043A000070180911C0190911D01A9014A5F5F4F97
:1043B0004817590764F006968217930744F081E086
:1043C0008093FD018091D10281110E94F41220910D
:1043D00004013091050180911F0190912001A901F4
:1043E0004A5F5F4F4817590704F1069682179307F3
:1043F000E4F080911C0190911D018A970D97A8F41B
:104400008091D102882331F064E670E080E496E088
:104410000E9482128091CF029091D00201969093D7
:10442000D0028093CF020E94001364E170E080E02C
:1044300090E00E94F2108091FE019091FF01813086
:10444000910509F440C082309105A1F1892B09F052
:1044500039C10E949E1283FF0AC08091D102882335
:1044600019F01092D10203C081E08093D1020E9422
:104470009E1282FF0AC080912301882319F01092B6
:10448000230103C081E0809323010E949E1286FDD8
:1044900032C10E949E1285FD2EC10E949E1287FD90
:1044A0002AC10E949E1284FD26C16CE370E080E068
:1044B00090E006C10E949E1283FD22C10E949E12BE
:1044C00082FD1EC1FFC080912301882321F05092FC
:1044D0002201409221018091FD018111E1C00E94E1
:1044E0009E1286FF1FC020911F01309120012037AE
:1044F0003105C4F48091210190912201820F931F14
:104500009093200180931F011092F90110921E01D7
:1045100081E08093F8011092F7018091D10281111E
:104520000E94FA120E949E1285FF1FC080911F01F7
:104530009091200189309105C4F0209121013091A2
:104540002201821B930B9093200180931F011092F4
:10455000F90110921E011092F80181E08093F70199
:104560008091D10281110E94FA120E949E1287FF4F
:104570001FC080911C0190911D0189309105C4F0EC
:104580002091210130912201821B930B90931D01F8
:1045900080931C0181E08093F90110921E0110921A
:1045A000F8011092F7018091D10281110E94FA1254
:1045B0000E949E1284FF1FC020911C0130911D019A
:1045C00020333105C4F48091210190912201820FA2
:1045D000931F90931D0180931C011092F90181E0BB
:1045E00080931E011092F8011092F7018091D10280
:1045F00081110E94FA120E949E1282FF37C08091A0
:10460000F501811133C08091F60181112FC0809195
:104610001A0190911B011816190644F58091D102D8
:10462000882331F064E670E084E893E00E9482120F
:1046300081E08093F60180911F0190912001029604
:10464000909319018093180180911C0190911D0194
:104650000296909317018093160180911A01909110
:104660001B01019790931B0180931A010E949E12D7
:1046700083FF1EC08091F6018823D1F08091F5015F
:10468000811116C081E08093F5018091D1028823C9
:1046900079F064E670E080EB94E00E94821208C03A
:1046A0000E949E1283FD2FC00E949E1282FD2BC08D
:1046B00080912301882331F06EE170E080E090E08A
:1046C0000E94F2108091E4028EBDE5EEF2E081914D
:1046D0000DB407FEFDCF8EBD26E0E43EF207B9F72C
:1046E0000DB407FEFDCF80E090E0892B09F405C9E9
:1046F0000E940000F9C8D092FF01C092FE01D5CE01
:104700000E940013DFCF3092D0022092CF020E948D
:104710000013CECF10E0B1CC8217930709F0B7CCCD
:10472000B182A082B382A282B4CCECE1F7E0138222
:10473000128288EE93E0A0E0B0E084839583A683A4
:10474000B78382E891E0918380838FEF9FEF958715
:104750008487E4EFF6E0138212821582168280E1EC
:1047600081871086178216861786108A118A128A08
:1047700082E991E091838083158A148A178A168AC8
:1047800081E0808F118E828F138E8CE79EE0909354
:10479000F3068093F20680E090E89093F106809310
:1047A000F00646983E9A47983F9A0895AA1BBB1B6D
:1047B00051E107C0AA1FBB1FA617B70710F0A61B21
:1047C000B70B881F991F5A95A9F780959095BC0142
:1047D000CD01089597FB072E16F4009407D077FDBE
:1047E00009D00E94D62307FC05D03EF49095819510
:1047F0009F4F0895709561957F4F0895EE0FFF1FAD
:104800000590F491E02D0994CF93DF9382309105C8
:1048100010F482E090E0E0917507F091760720E0D7
:1048200030E0C0E0D0E0309711F14081518148176D
:104830005907C0F04817590761F482819381209786
:1048400019F09B838A832BC090937607809375071A
:1048500026C02115310519F04217530718F49A01A3
:10486000BE01DF01EF010280F381E02DDCCF2115D5
:10487000310509F1281B390B2430310590F41296CB
:104880008D919C9113976115710521F0FB01938324
:10489000828304C09093760780937507FD0132965A
:1048A00044C0FD01E20FF31F81939193225031091F
:1048B0002D933C933AC02091730730917407232BBA
:1048C00041F42091320130913301309374072093E9
:1048D000730720913001309131012115310541F4E8
:1048E0002DB73EB74091340150913501241B350B53
:1048F000E0917307F0917407E217F307A0F42E1B01
:104900003F0B2817390778F0AC014E5F5F4F241733
:10491000350748F04E0F5F1F50937407409373079D
:104920008193919302C0E0E0F0E0CF01DF91CF915D
:1049300008950F931F93CF93DF93009709F48CC0D2
:10494000FC0132971382128200917507109176074D
:104950000115110581F420813181820F931F20916F
:104960007307309174072817390779F5F0937407A6
:10497000E093730771C0D80140E050E0AE17BF0765
:1049800050F412962D913C911397AD0121153105EC
:1049900009F1D901F3CF9D01DA01338322836081CC
:1049A0007181860F971F8217930769F4EC012881A4
:1049B0003981260F371F2E5F3F4F318320838A8135
:1049C0009B8193838283452B29F4F0937607E093B0
:1049D000750742C01396FC93EE931297ED0149912F
:1049E00059919E01240F351FE217F30771F480815E
:1049F0009181840F951F029611969C938E938281CC
:104A0000938113969C938E931297E0E0F0E0D80187
:104A100012968D919C911397009719F0F8018C01D3
:104A2000F6CF8D919C9198012E5F3F4F820F931F7F
:104A300020917307309174072817390769F430976C
:104A400029F4109276071092750702C01382128221
:104A50001093740700937307DF91CF911F910F910B
:104A60000895A0E0B0E0E7E3F5E20C945427EC01F0
:104A7000009721F4CB010E940424B8C0FC01E60F8A
:104A8000F71F9C0122503109E217F30708F4ACC06C
:104A9000D9010D911C91119706171707B0F0053039
:104AA000110508F49FC0C80104978617970708F4FA
:104AB00099C002501109061B170B019311936D93B6
:104AC0007C93CF010E9499248DC05B01A01AB10A8A
:104AD0004C01800E911EA0917507B091760740E0C1
:104AE00050E0E12CF12C109709F44AC0A815B90543
:104AF000D1F56D907C901197630182E0C80ED11CB6
:104B0000CA14DB0480F1A3014A195B096A0182E03F
:104B1000C80ED11C1296BC9012971396AC91B5E0BA
:104B2000CB16D10440F0B282A38351834083D901D4
:104B30006D937C930AC00E5F1F4FC301800F911FBE
:104B4000F90191838083EB2DFA2FE114F10431F008
:104B5000D7011396FC93EE93129744C0F093760717
:104B6000E09375073FC08D919C91119748175907A5
:104B700008F4AC017D0112960D90BC91A02DB3CF2D
:104B8000809173079091740788159905E1F4461791
:104B90005707C8F48091300190913101009741F49A
:104BA0008DB79EB74091340150913501841B950B10
:104BB000E817F907C8F4F0937407E0937307F90155
:104BC000718360830FC0CB010E9404247C01009795
:104BD00059F0A801BE010E940026CE010E9499242E
:104BE000C70104C0CE0102C080E090E0CDB7DEB7BF
:104BF000EEE00C94702781E090E0F8940C94B827D4
:104C0000FB01DC0102C001900D9241505040D8F7E9
:104C10000895FB01DC0101900D920020E1F7089559
:104C20008F929F92AF92BF92CF92DF92EF92FF92BC
:104C3000CF93DF93EC01688179818A819B81611533
:104C400071058105910521F464E279ED8BE597E02A
:104C50002DE133EF41E050E00E941E2749015A0147
:104C60009B01AC01A7EAB1E40E943D276B017C01E6
:104C7000ACEEB4EFA50194010E944B27DC01CB01FF
:104C80008C0D9D1DAE1DBF1DB7FF03C00197A1096F
:104C9000B04888839983AA83BB839F77DF91CF91A4
:104CA000FF90EF90DF90CF90BF90AF909F908F904C
:104CB00008950E941026089586E391E00E94102630
:104CC0000895A0E0B0E08093360190933701A0935F
:104CD0003801B093390108958F929F92AF92BF929D
:104CE000CF92DF92EF92FF92CF93DF93EC01688136
:104CF00079818A819B81611571058105910521F476
:104D000064E279ED8BE597E02DE133EF41E050E08F
:104D10000E941E2749015A019B01AC01A7EAB1E498
:104D20000E943D276B017C01ACEEB4EFA50194011C
:104D30000E944B27DC01CB018C0D9D1DAE1DBF1DBC
:104D4000B7FF03C00197A109B04888839983AA835C
:104D5000BB83BC01CD019F77DF91CF91FF90EF9096
:104D6000DF90CF90BF90AF909F908F9008950E945A
:104D70006C2608958AE391E00E946C260895609362
:104D80003A0170933B0180933C0190933D0108955B
:104D90004532510520F4423010F00C94D326FB012B
:104DA0001082CB010895BB274A3031F4992322F4B5
:104DB000BDE2909581959F4F0C94DF26BB27FB01A8
:104DC0005527AA27880F991FAA1FA41710F0A41B04
:104DD00083955051B9F7A05DAA3308F0A95DA1935E
:104DE000009779F7B111B1931192CB010C94F82689
:104DF000DC01FC01672F71917723E1F7329704C042
:104E00007C916D9370836291AE17BF07C8F30895CC
:104E1000F999FECF92BD81BDF89A992780B5089582
:104E2000262FF999FECF1FBA92BD81BD20BD0FB6C6
:104E3000F894FA9AF99A0FBE01960895052E97FBF9
:104E40001EF400940E94352757FD07D00E94872743
:104E500007FC03D04EF40C943527509540953095BF
:104E600021953F4F4F4F5F4F0895909580957095D6
:104E700061957F4F8F4F9F4F08950E94A927A59F4F
:104E8000900DB49F900DA49F800D911D1124089545
:104E9000B7FF0C943D270E943D27821B930B08957A
:104EA0002F923F924F925F926F927F928F929F923A
:104EB000AF92BF92CF92DF92EF92FF920F931F9328
:104EC000CF93DF93CDB7DEB7CA1BDB0B0FB6F894D9
:104ED000DEBF0FBECDBF09942A88398848885F8419
:104EE0006E847D848C849B84AA84B984C884DF808A
:104EF000EE80FD800C811B81AA81B981CE0FD11D6E
:104F00000FB6F894DEBF0FBECDBFED010895A1E24C
:104F10001A2EAA1BBB1BFD010DC0AA1FBB1FEE1F33
:104F2000FF1FA217B307E407F50720F0A21BB30B7E
:104F3000E40BF50B661F771F881F991F1A9469F7FA
:104F400060957095809590959B01AC01BD01CF0156
:104F50000895A29FB001B39FC001A39F700D811D52
:104F60001124911DB29F700D811D1124911D089572
:044F7000F894FFCFE3
:104F740001010A0070001000180010001800200041
:104F840070003000700008000800030008000108E9
:104F94000002000100E1000000000000FFFFFFFF2D
:104FA40000007707800001000000010000001800E5
:104FB40020002800380040004800580068007000B5
:104FC4001000200030001000300050006000080085
:104FD40018002800380008001800200028003800B5
:104FE40040004800580068007000030009000000F9
:104FF40000002F14AC14921450146E1445140000C5
:1050040000007F0E370E00C18081000000594F550B
:105014002048415645204F4E45204A4F422C0033EC
:1050240020424F4D42532C20414E44203130733A9C
:105034000047455420544F2054484520444F4F5274
:105044002E2E2E00414C4956452E00474F4F4420EA
:065054004C55434B210006
:00000001FF
