:100000000C94B9090C94E1090C94E1090C94E109F0
:100010000C94E1090C94E1090C94E1090C94E109B8
:100020000C94E1090C94E1090C9434130C94A6137C
:100030000C94E1090C94E1090C94E1090C94E10998
:100040000C94E1090C94E1090C94E1090C94E10988
:100050000C94E1090C94E1090C94E1090C94D80C7E
:100060000C94E1090C94E1090C94E1090C94E10968
:100070000C94E1090C94E1090C94E1090C94E10958
:100080000C94CE0D0C94E1090C94E1090C94E10957
:100090000C94E1090C94E1090C94E1090C94E10938
:1000A0000C94E1090C94E1090C94E109050C080C8D
:1000B000F70BFB0BFF0B290C290C290C0C0C100C5B
:1000C000140C1A0C1E0C290C240C00000000240037
:1000D00027002A002D003000D5F08D14A1C881CF53
:1000E000D9F1AF20000408020110408040102040E8
:1000F000804080080204018040201002011080101E
:100100002040402000000000250028002B002E0089
:10011000310004040404040304050202020204037F
:100120000202020206060606060604040202020491
:10013000041402130212021502070208020A020A3C
:10014000010B020B010902090104010C0106010067
:10015000FFFFC3DBFFC3FFFF91523C27E43C4A890A
:10016000002E35F175F14E00004EF175F1352E007F
:10017000004EB17571B54E00004EBD7F7FBF4E0081
:10018000FC86C389C18BC6FCF88CC692C296CCF89B
:10019000FCC693818193C6FCF8CCA68383A6CCF8D9
:1001A000090606090E0F0B0E840364002003640089
:1001B0008403640058026400F40164002C016400AC
:1001C000640064002C016400F40164003200A000AB
:1001D0000080FFFFFFFFFFFFFFFFFFFFFFFFFFFFAD
:1001E000FFFFFFFFFFFFFFEF1745FFFFFFFFF1FFDF
:1001F000FFFFE7B7FFFFFFEF7B5DFFFFFFFFECFFB8
:10020000FFFFC3CFFFFFFFEF3ACDFFFFFFFFEAFF86
:10021000FFFFCBCFFFFFFFEF7CDDFFFFFFFFEEFF18
:10022000FFFFC3B7FFFFFFE11DC43FFFFFFFF1FF6B
:10023000FFFFFFFFFFFFFFFFFFFFFFFFFFFFFFFFCE
:10024000FFFF0000000000000000000000000000B0
:100250000000FFFFFFFFFFFFFFFFFFFFFFFFFFFFAC
:10026000FFFFAEFFFFFFFFFFFFFFFFFFFFFFFFFFEF
:10027000FFAEFEFFFFFFFFFFFFFFFFFFFFFFFFFFE0
:10028000FFFEBAFFFFFFFFFFFFFFFFFFFFFFFFFFC4
:10029000FFBAFEFFFFFFFFFFFFFFFFFFFFFFFFFFB4
:1002A000FFFEAAFFFFFFFFFFFFFFFFFFFFFFFFFFB4
:1002B000FFAAFEFFFFFFFFFFFFFFFFFFFFFFFFFFA4
:1002C000FFFE00FFFFFFFFFFFFFFFFFFFFFFFFFF3E
:1002D000FF00FFFFFFFFFFFFFFFFFFFFFFFFFFFF2D
:1002E000FFFFAEFFFFFFFFFFFFFFFFFFFFFFFFFF6F
:1002F000FFAEFEFFFFFFFFFFFFFFFFFFFFFFFFFF60
:10030000FFFEBAFFFFFFFFFFFFFFFFFFFFFFFFFF43
:10031000FFBAFEFFFFFFFFFFFFFFFFFFFFFFFFFF33
:10032000FFFEAAFFFFFFFFFFFFFFFFFFFFFFFFFF33
:10033000FFAAFEFFFFFFFFFFFFFFFFFFFFFFFFFF23
:10034000FFFE00FFFFFFFFFFFFFFFFFFFFFFFFFFBD
:10035000FF00FFFFFFFFFFFFFFFFFFFFFFFFFFFFAC
:10036000FFFFAEFFFFFFFFFFFFFFFFFFFFFFFFFFEE
:10037000FFAEFEFFFFFFFFFFFFFFFFFFFFFFFFFFDF
:10038000FFFEBAFFFFFFFFFFFFFFFFFFFFFFFFFFC3
:10039000FFBAFEFFFFFFFFFFFFFFFFFFFFFFFFFFB3
:1003A000FFFEAAFFFFFFFFFFFFFFFFFFFFFFFFFFB3
:1003B000FFAAFEFFFFFFFFFFFFFFFFFFFFFFFFFFA3
:1003C000FFFE00FFFFFFFFFFFFFFFFFFFFFFFFFF3D
:1003D000FF00FFFFFFFFFFFFFFFFFFFFFFFFFFFF2C
:1003E000FFFFAEFFFFFFFFFFFFFFFFFFFFFFFFFF6E
:1003F000FFAEFEFFFFFFFFFFFFFFFFFFFFFFFFFF5F
:10040000FFFEBAFFFFFFFFFFFFFFFFFFFFFFFFFF42
:10041000FFBAFEFFFFFFFFFFFFFFFFFFFFFFFFFF32
:10042000FFFEAAFFFFFFFFFFFFFFFFFFFFFFFFFF32
:10043000FFAAFEFFFFFFFFFFFFFFFFFFFFFFFFFF22
:10044000FFFE00FFFFFFFFFFFFFFFFFFFFFFFFFFBC
:10045000FF00FFFFFFFFFFFFFFFFFFFFFFFFFFFFAB
:10046000FFFFAEFFFFFFFFFFFFFFFFFFFFFFFFFFED
:10047000FFAEFEFFFFFFFFFFFFFFFFFFFFFFFFFFDE
:10048000FFFEBAFFFFFFFFFFFFFFFFFFFFFFFFFFC2
:10049000FFBAFEFFFFFFFFFFFFFFFFFFFFFFFFFFB2
:1004A000FFFEAAFFFFFFFFFFFFFFFFFFFFFFFFFFB2
:1004B000FFAAFEFFFFFFFFFFFFFFFFFFFFFFFFFFA2
:1004C000FFFE00FFFFFFFFFFFFFFFFFFFFFFFFFF3C
:1004D000FF00FFFFFFFFFFFFFFFFFFFFFFFFFFFF2B
:1004E000FFFFAEFFFFFFFFFFFFFFFFFFFFFFFFFF6D
:1004F000FFAEFEFFFFFFFFFFFFFFFFFFFFFFFFFF5E
:10050000FFFEBAFFFFFFFFFFFFFFFFFFFFFFFFFF41
:10051000FFBAFEFFFFFFFFFFFFFFFFFFFFFFFFFF31
:10052000FFFEAAFFFFFFFFFFFFFFFFFFFFFFFFFF31
:10053000FFAAFEFFFFFFFFFFFFFFFFFFFFFFFFFF21
:10054000FFFE00FFFFFFFFFFFFFFFFFFFFFFFFFFBB
:10055000FF00FFFFFFFFFFFFFFFFFFFFFFFFFFFFAA
:10056000FFFFAEAEAEAEAEAEAEAEAEAEAEAEAEAE09
:10057000AEAEFEFEFEFEFEFEFEFEFEFEFEFEFEFE3B
:10058000FEFEBABABABABABABABABABABABABABA43
:10059000BABAFEFEFEFEFEFEFEFEFEFEFEFEFEFE03
:1005A000FEFEAAAAAAAAAAAAAAAAAAAAAAAAAAAA03
:1005B000AAAAFEFEFEFEFEFEFEFEFEFEFEFEFEFE03
:1005C000FEFE00000000000000000000000000002F
:1005D000000000000000000000000000000000001B
:1005E000000000000000000000000000000000000B
:1005F00000000000000000000000000000000000FB
:1006000000000000000000000000FFF000000000FB
:1006100000000000000000000001FFFC00000000DE
:1006200000000000000000000003FFFF00000000C9
:1006300000000000000000000007FFFFC0000000F5
:100640000000000000000000000FFFFFC0000000DD
:100650000000000000000000001FFFFFE00000009D
:1006600000000000007DF3F9FF3FFFFFE000000005
:100670000000000000C7160F117E3FF07000000060
:100680000000000001C71C071179DFF7B00000006F
:100690000000000001C71C071177EFE7D800000039
:1006A0000000000001C71C471177EFEFD8000000E1
:1006B0000000000001C71C471177EFEFD8000000D1
:1006C0000000000001C71C471173CFE7980000002D
:1006D0000000000001C71C47117C3FF878000000B3
:1006E0000000000001C71C47117FFB7FF8000000DD
:1006F0000000000001C01C07017FFB7FF800000024
:100700000000000001C01C07017FF33FF80000005B
:100710000000000001C01E0F837FFFFFF8000000F3
:100720000000000001FF9FFBFE3FFFFFF000000004
:100730000000000001FF97F1FC1FFFFFE000000038
:100740000000000001FF9000000FFFFFC00000004C
:1007500000000000000390000007FFFF0000000001
:1007600000000000000390000001FFFE0001FC00FB
:1007700000000000000390000000FDDA0003040008
:100780000000000000FF90000000DDFE00030400F8
:1007900000000000018017FFF000DFFE00030400EE
:1007A0000000000003803C001C00FDDE000304008C
:1007B0000000000003FFFC000600FFFE0003040031
:1007C0000000000003FFDC00033FFFFE0003040005
:1007D0000000000003FF9C000161C004FFC388000B
:1007E0000000000000001C0001E1C0078023880019
:1007F0000000000000001C1F81E1C007801388007A
:100800000000000000001C1FC1E1C0078009880033
:100810000000000000001C1FE1E1C3FF8E098800FA
:100820000000000000001C13E1E1C3FB8F098800F9
:100830000000000000001C11E1E1C3E38F89880083
:100840000000000000001C10E1E1C2038B89880059
:100850000000000000001C10E1E1C3E3898988006A
:100860000000000000001C10E1E1C023898988001D
:100870000000000000001C10E1E1C023898988000D
:100880000000000000001C10E1E1C02389898800FD
:100890000000000000001C10E1E1C02389898800ED
:1008A0000000000000001C10E1E1C3E3898988001A
:1008B0000000000000001C10E1E1C3C38989D000E2
:1008C0000000000000001C10E1E1C3838989D00012
:1008D0000000000000001C10E1E1C2038988D00084
:1008E0000000000000001C10E1E1C2038988D00074
:1008F0000000000000001C10E1E1C3FF8988D00067
:100900000000000000001C10E1E1C0078F08D000CB
:100910000000000000001C1FC1E1C0078008D000DB
:100920000000000000001C0001E1C0078010F00082
:100930000000000000001C0001E1C0078020E00072
:100940000000000000001C0003FFFFFFFFC00000CC
:100950000000000000001C0006FFFFFBFFC070004D
:100960000000000000001C000CFDFFF3FF80D00021
:100970000000000000001FFFF80000000000D00091
:100980000000000000001FFFF00000000000F00069
:100990000000000000001FFFE00000000000E00079
:1009A0000000000000000000000000000000000047
:1009B0000000000000000000000000000000000037
:1009C0000000000000000000000000000000000027
:1009D0000000FFFFFFFFFFFFFFFFFFFFFFFFFFFF25
:1009E000FFFFFFFFFFFFFFFFFFFFFFFFFFFFFF8096
:1009F00007FFFFFFFFFFFFFFFFFFFFFFFFFFFF00FE
:100A000001FFFFFFFFFFFFFFFFFFFFFFFFFFFE00F4
:100A1000007FFFFFFFFFFFFFFFFFFFFFFFFFFC0067
:100A2000001FFF001FFFFFFFFFFFFFF1FFFFF800A8
:100A3000001FFE7FCFFFFFFFFFFFFFE5FFFFF0007E
:100A4000000FFCFFE400FFF04180C00500602000C3
:100A5000000FFDFFF1CEFFE71D3E1DC06F4F80E090
:100A600007C7F9FFF1CEFFC71C7F1DC07F1FC31052
:100A70000427F9E0F1CEFFC71C7F1DD2711E440888
:100A80000C13F9E0F1CEFFC71C771DDE601C440893
:100A90000813F9ECF1CEFFC71C771DDE609FC40878
:100AA0000813F9ECF1CEFFC71C771DDE6F9FC61847
:100AB0000C33F9ECF1FEFFC71C771DDE6F9801E0E7
:100AC00003C3F9ECF1FEFFC71C771DDE6F99C0026E
:100AD0004003F9ECF1FEFFC7FC7F1FDE6F9FC002F1
:100AE0004003F9E0F1CEFFC7FC7F1FDE6F9FC00619
:100AF0006003F9FFF1CEFFC7FC3E0F9E6F8F8000B1
:100B00000003F9FFF1CE8FC00C00803E0FC0200023
:100B10000007F9FFF1CE2FC00D01C07E1FE070006D
:100B2000000FF8FFE0002FC00DFFFFFFFFFFF800F0
:100B3000001FF87FC8012FFF8DFFFFFFFFFFFC00A4
:100B4000007FFC001FFF0FFF8DFFFFFFFFFFFF0077
:100B5000007FFE003FFF1FFF8DFFFFFFFFFFFF81B4
:100B6000127FFFFFFFFF1FE00DFFFFFFFFFFFF9161
:100B7000007FFFFFFFFFFFCFFDFFFFFC0007FF909F
:100B8000007FFF00007FFF8FF9FFFFF9FFF1FF817A
:100B9000107FFE7FFF3FFF8003FFFFF1FFFCFF8020
:100BA000007FFCFFFF9FFF8007FFFFF1FFFE60005B
:100BB000007FF9FFFFDFFF800FFFFFF1FFFF4F1FF7
:100BC000FC7FF3FFFFDFFFFFFFFFFFF1FFFF0F1FC2
:100BD000FC7FE3FFFFD0010610618071F03F0F1F23
:100BE000FCFFE3FFFFC71C70C70C3F31F01F0F1F56
:100BF000FCFFE3F87FC71C78C78C7FB1F00F0F1E96
:100C000000FFE3F03FC71C78C78C73B1F60F0F1ECF
:100C100003FFE3F03FC71C6CC6CC73B1F70F0F1E88
:100C20000FFFE3F43FC71C6CC6CC7FB1F78F0F1EDC
:100C3000FFFFE3F600071C66C66C7FB1F78F0F1E3F
:100C40000FFFE3F600271C67C67C73B1F78F0F1FF9
:100C5000EFFFE3F600671C63C63C73B1F78F0F1F0D
:100C6000EFFFE3F7FFE7FC63C63C73B1F78F0F1F9D
:100C7000EFFFE3F60007FC61C61C73B1F78F0F1F8F
:100C8000EFFFE3F6FFC7FC69C69C73B1F78F0F1E39
:100C90000FFFE3F4FFC3F868C68C73B1F78F0F1E24
:100CA0001FFFE3F0FFC0020C00C00031F78F0F1EE2
:100CB0003FFFE3F0FFD0061C21C20871F78F0F1E23
:100CC000FFFFE3F0FFDFFFFFFFFFFFF1F78F0F1ED6
:100CD000FFFFE3F007DFFFFFFFFFFFF1F78F0F1EBE
:100CE00001FFE3F007DFFFFFFFFFFFF1F78F0F1FAB
:100CF000FDFFE3F007DFFFFFFFFFFFF1F01F0F1F16
:100D0000FDFFE3F807DE1EDDC3E1C031FFFF0F1F6B
:100D1000FDFFE3FFFFDDEF5B99CCC031FFFF0F1F4D
:100D2000FDFFE3FFFFDD4F873C9E4D31FFFE0000DE
:100D300001FFE3FFFFDDEFB17EB54931FFFC80002D
:100D400003FFE1FFFF9E1E375ABF4931FFF98100C3
:100D500007FFE0FFFF3E1F877EBF4D300003FFFF10
:100D6000FFFFE07FFE7D2F6B3CAA40300007FFFFB6
:100D7000FFFFF00000FEDEED00804030000FFFFFBF
:100D8000FFFFF80001FFFFFFFFFFFFFFFFFFFFFF77
:100D9000FFFFFC0003FFFFFFFFFFFFFFFFFFFFFF61
:100DA000FFFFFFFFFFFFFFFFFFFFFFFFFFFFFFFF53
:100DB000FFFFFFFFFFFFFFFFFFFFFFFFFFFFFFFF43
:100DC000FFFFFFFFFFFFFFFFFFFFFFFFFFFFFFFF33
:100DD000FFFF00000000003E5B4F5B3E3E6B4F6B31
:100DE0003E1C3E7C3E1C183C7E3C181C577D571C0C
:100DF0001C5E7F5E1C00183C1800FFE7C3E7FF0085
:100E000018241800FFE7DBE7FF30483A060E2629D2
:100E1000792926407F050507407F05253F5A3CE795
:100E20003C5A7F3E1C1C08081C1C3E7F14227F225B
:100E3000145F5F005F5F06097F017F006689956A26
:100E4000606060606094A2FFA29408047E040810B1
:100E5000207E201008082A1C08081C2A08081E10DA
:100E60001010100C1E0C1E0C30383E3830060E3E92
:100E70000E06000000000000005F000000070007F1
:100E800000147F147F14242A7F2A1223130864621B
:100E900036495620500008070300001C224100007C
:100EA00041221C002A1C7F1C2A08083E08080080DA
:100EB0007030000808080808000060600020100872
:100EC00004023E5149453E00427F40007249494973
:100ED000462141494D331814127F102745454539A5
:100EE0003C4A4949314121110907364949493646A9
:100EF0004949291E00001400000040340000000889
:100F0000142241141414141400412214080201592B
:100F100009063E415D594E7C1211127C7F494949B8
:100F2000363E414141227F4141413E7F494949414D
:100F30007F090909013E414151737F0808087F007C
:100F4000417F41002040413F017F081422417F4002
:100F50004040407F021C027F7F0408107F3E4141D9
:100F6000413E7F090909063E4151215E7F09192949
:100F700046264949493203017F01033F4040403F33
:100F80001F2040201F3F4038403F63140814630374
:100F9000047804036159494D43007F4141410204F3
:100FA000081020004141417F0402010204404040FA
:100FB0004040000307080020545478407F284444F0
:100FC000383844444428384444287F38545454180A
:100FD00000087E090218A4A49C787F080404780005
:100FE000447D40002040403D007F102844000041E7
:100FF0007F40007C047804787C08040478384444FA
:101000004438FC1824241818242418FC7C080404F0
:1010100008485454542404043F44243C4040207C59
:101020001C2040201C3C4030403C44281028444CAC
:101030009090907C4464544C440008364100000079
:10104000770000004136080002010204023C26231A
:10105000263C1EA1A161123A4040207A38545455D2
:10106000592155557941215454784121555478409E
:1010700020545579400C1E52721239555555593924
:101080005454545939555454580000457C41000279
:10109000457D420001457C40F0292429F0F02825B7
:1010A00028F07C545545002054547C547C0A097F18
:1010B0004932494949323248484832324A48483030
:1010C0003A4141217A3A42402078009DA0A07D39E2
:1010D000444444393D4040403D3C24FF2424487E64
:1010E0004943662B2FFC2F2BFF0929F620C0887E51
:1010F000090320545479410000447D413048484A56
:1011000032384040227A007A0A0A727D0D19317D08
:101110002629292F28262929292630484D402038DC
:101120000808080808080808382F10C8ACBA2F109B
:101130002834FA00007B000008142A142222142A02
:1011400014089500220095AA005500AAAA55AA5590
:10115000AA000000FF00101010FF00141414FF007C
:101160001010FF00FF1010F010F0141414FC001405
:1011700014F700FF0000FF00FF1414F404FC141423
:1011800017101F10101F101F1414141F0010101020
:10119000F0000000001F101010101F10101010F0B1
:1011A00010000000FF101010101010101010FF1091
:1011B000000000FF140000FF00FF00001F101700D8
:1011C00000FC04F414141710171414F404F40000B1
:1011D000FF00F714141414141414F700F714141463
:1011E000171410101F101F141414F4141010F01002
:1011F000F000001F101F0000001F14000000FC146E
:101200000000F010F01010FF10FF141414FF141061
:1012100010101F00000000F010FFFFFFFFFFF0F0B4
:10122000F0F0F0FFFFFF0000000000FFFF0F0F0FC6
:101230000F0F38444438447C2A2A3E147E020206AA
:1012400006027E027E0263554941633844443C04F1
:10125000407E201E2006027E020299A5E7A5991C69
:101260002A492A1C4C7201724C304A4D4D3030488C
:10127000784830BC625A463D3E494949007E0101EA
:10128000017E2A2A2A2A2A44445F444440514A447F
:101290004040444A51400000FF0103E080FF00004D
:1012A00008086B6B083612362436060F090F060045
:1012B0000018180000001010003040FF0101001F4E
:1012C00001011E00191D1712003C3C3C3C000000AF
:1012D00000000000000200090F0000030401000CE0
:1012E00000000000000000000000000000000000FE
:1012F00000080B00020202010009040000010202C2
:101300000000052400100105240101010424020647
:1013100005240600010705810310004009040100AF
:10132000020A0000000705020240000007058302D0
:101330004000000403090441726475696E6F204C1B
:101340004C430041726475626F7900120100020023
:101350000000404123368000010102030112010018
:1013600002EF020140412336800001010203010027
:10137000A81C11241FBECFEFDAE0DEBFCDBF11E005
:10138000A0E0B1E0EAE9F1E402C005900D92A23CD0
:10139000B107D9F727E0A2ECB1E001C01D92A53258
:1013A000B207E1F719E0C9EBD9E004C02197FE01CB
:1013B0000E94111DC83BD107C9F70E94E3150C9488
:1013C000CB200C940000CF92DF92EF92FF920F930C
:1013D0001F93CF93DF936C017A018B01C0E0D0E0C3
:1013E000CE15DF0589F0D8016D918D01D601ED9103
:1013F000FC910190F081E02DC6010995892B11F433
:101400007E0102C02196ECCFC701DF91CF911F91E1
:101410000F91FF90EF90DF90CF9008958091CB01D6
:10142000E091C901F091CA01882349F0CF010296E9
:101430009093CA018093C901859194910895CF0139
:1014400002969093CA018093C90180819181089589
:101450008091C20108952F923F924F925F926F92B6
:101460007F928F929F92AF92BF92CF92DF92EF9234
:10147000FF920F931F93CF93DF9300D000D000D043
:10148000CDB7DEB7DC016A30A9F45A962C915A9791
:1014900056968D919C91579708E0209F800D911D45
:1014A000112457969C938E93569755961C921E9294
:1014B0005497D1C06D3009F4CEC05A96BC905A975B
:1014C00059962C90599758963C90589756962D912E
:1014D0003C9157973C832B8354968D919C915597C3
:1014E00080389105C4F05A962C915A97422F50E0BB
:1014F00054968D919C91559736E0239F800D911DB8
:10150000112455969C938E9354975B962C915B97E0
:1015100021118EC0A0C00B811C81003411051CF765
:101520009C0115E0B19E200D311D112412161306E9
:10153000D4F68B2C912C2B813C8148E0B49E200D5D
:10154000311D11241216130674F6E5E06E9F20017A
:10155000112460E070E06530710539F0FB01E40DA5
:10156000F51DEE52F24FA49001C0A12CEB80FC803F
:1015700008E0702EA0FC02C0622C01C0632C611038
:1015800009C0231007C0A6947A94E80CF91C7110C6
:10159000F1CF45C09C01422F481B4B15A0F7A70176
:1015A000E42FF42FFE19FB15B8F52038310588F526
:1015B0004034510570F5E695E695E695CE2ED12C92
:1015C0008A01077011271A830983F601F695FE2F09
:1015D000EE27F795E795E20FF31F8F010E561D4F8B
:1015E0001E830D83E1E0F0E0098002C0EE0FFF1FD3
:1015F0000A94E2F7FA83E983662029F0F801D080A3
:10160000C980CD2805C0CE2EC094F801D080CD2051
:10161000C0824F5F5F4FC4CF2F5F3F4FBCCF6F5F24
:101620007F4F880D991D6630710509F094CF5BCF0F
:101630006AEF64039001659F300D112420583F4FDD
:101640002817390744F4CD01ED91FC910190F08108
:10165000E02D6AE0099581E090E026960FB6F894B7
:10166000DEBF0FBECDBFDF91CF911F910F91FF90D5
:10167000EF90DF90CF90BF90AF909F908F907F9032
:101680006F905F904F903F902F9008950E940E1F93
:10169000EF92FF920F931F93CF93DF93EC017B01A7
:1016A0008A0188819981009729F02A813B8124173A
:1016B0003507F8F4B8016F5F7F4F0E94441E009712
:1016C00059F0998388831B830A832C813D81232BC6
:1016D00081F4FC0110820DC088819981009711F07E
:1016E0000E94AC1D198218821D821C821B821A82E4
:1016F00007C01D830C83B701888199810E941C1F3C
:10170000CE01DF91CF911F910F91FF90EF9008953F
:10171000FC01808191810C94AC1DEF92FF920F939C
:101720001F93CF93DF93CDB7DEB762970FB6F894D0
:10173000DEBF0FBECDBF8C01CB01F801118210823C
:10174000138212821582148250E09E012F5F3F4F58
:101750007901B9010E94DB1FF70101900020E9F730
:101760003197AF014E195F09B701C8010E94480BBC
:1017700062960FB6F894DEBF0FBECDBFDF91CF915A
:101780001F910F91FF90EF900895FC01118210823C
:1017900013821282158214826115710551F0FB01CA
:1017A00001900020E9F73197AF01461B570B0C94CD
:1017B000480B0895362F90E0FC01EE52FD4E449107
:1017C000FC01EB51FF4F2491FC01EE5EFE4F849132
:1017D000882309F451C04423E1F150E0FA01319724
:1017E000EF30F105B0F5EA5AFF4F0C94111D9091BE
:1017F00080009F7707C0909180009F7D03C09091EB
:101800008000977F9093800024C094B59F7702C09A
:1018100094B59F7D94BD1DC0909190009F7707C0A7
:10182000909190009F7D03C090919000977F90933E
:1018300090000FC09091C0009F7703C09091C000AE
:101840009F7D9093C00005C09091C200977F9093B8
:10185000C200E82FF0E0EE0FFF1FEC5FFE4FA591F6
:10186000B4918FB7F894EC91311103C020952E23D9
:1018700001C02E2B2C938FBF0895CF93DF9390E060
:10188000FC01EB51FF4F2491FC01EE5EFE4F849171
:10189000882361F190E0880F991FFC01E653FF4F08
:1018A000C591D491FC01EC5FFE4FA591B4916111FB
:1018B00009C09FB7F8948881209582238883EC9192
:1018C0002E230BC0623061F49FB7F8943881822FC9
:1018D000809583238883EC912E2B2C939FBF06C089
:1018E0008FB7F894E8812E2B28838FBFDF91CF919B
:1018F00008953FB7F89480918A0290918B02A0914D
:101900008C02B0918D0226B5A89B05C02F3F19F01F
:101910000196A11DB11D3FBFBA2FA92F982F88276F
:10192000820F911DA11DB11DBC01CD0142E0660FCA
:10193000771F881F991F4A95D1F708958F929F921C
:10194000AF92BF92CF92DF92EF92FF926B017C0138
:101950000E94790C4B015C01C114D104E104F10433
:10196000F1F00E94790CDC01CB0188199909AA09D0
:10197000BB09883E9340A105B10570F321E0C21A6E
:10198000D108E108F10888EE880E83E0981EA11CBA
:10199000B11CC114D104E104F10419F7DDCFFF90AB
:1019A000EF90DF90CF90BF90AF909F908F90089571
:1019B0001F920F920FB60F9211242F933F938F9384
:1019C0009F93AF93BF938091C3019091C401A09165
:1019D000C501B091C6013091890223E0230F2D3754
:1019E00020F40196A11DB11D05C026E8230F029623
:1019F000A11DB11D209389028093C3019093C4015E
:101A0000A093C501B093C60180918A0290918B0288
:101A1000A0918C02B0918D020196A11DB11D809301
:101A20008A0290938B02A0938C02B0938D02BF9197
:101A3000AF919F918F913F912F910F900FBE0F907B
:101A40001F901895CF92DF92EF92FF920F931F9302
:101A5000CF93DF930E940E0A811520E8920761F46C
:101A6000809171008D7F8093710010929100469853
:101A700047981092CC0189C021E02093CC0181309D
:101A800020E8920751F48091C7019091C80190938A
:101A9000CA018093C9010E940E0A469897FD05C0AD
:101AA00020918202222309F46BC02091810221112E
:101AB00067C021E020938302EC01DF77209769F46F
:101AC00081E08093840246983FE9C32E3FE0D32E05
:101AD000E12CF12CCAEFD0E014C08E0120E030E000
:101AE00060E472E48FE090E0A90198010E94312047
:101AF00069017A0181E0C81AD108E108F108109261
:101B00008402E091A006F091A1060995811103C01D
:101B100081E080938402809183028823A1F18091E7
:101B20008402811130C0479A0E940E0A009771F01A
:101B30009C01DE010E94BC20DC01CB0129E0B595AF
:101B4000A795979587952A95D1F703C08FEF9FEFBB
:101B5000DC01109290002AE020939100D09299002D
:101B6000C09298008093850290938602A09387028A
:101B7000B09388028091710082608093710005C0EB
:101B80001092830299CF4798CFCFDF91CF911F91C9
:101B90000F91FF90EF90DF90CF9008951F920F92DA
:101BA0000FB60F9211242F933F934F935F936F9330
:101BB0007F938F939F93AF93BF93EF93FF93809106
:101BC000850290918602A0918702B0918802892BAC
:101BD0008A2B8B2B81F18091840281110BC098B1EB
:101BE00080E4892788B980918302882319F088B11D
:101BF000805888B98091850290918602A0918702D1
:101C0000B0918802181619061A061B06B4F48091C2
:101C1000850290918602A0918702B0918802019777
:101C2000A109B1098093850290938602A09387024F
:101C3000B093880202C00E94220DFF91EF91BF91E4
:101C4000AF919F918F917F916F915F914F913F9154
:101C50002F910F900FBE0F901F9018959C01E1E7F8
:101C6000F0E090819D7F90831092CB01E2E9F6E055
:101C7000F093CA01E093C901F093C801E093C70152
:101C8000318320837383628380E090E8958384832B
:101C90000C94220D8FB12CB193B130E0209530958A
:101CA00020743327A90123E0559547952A95E1F73C
:101CB000292F30E0209530952071332735952795D1
:101CC00035952795242B8095807F822B08950F933F
:101CD0001F93CF93DF931F92CDB7DEB7182F062F38
:101CE00061E089E049830E94DA0B68EC70E080E0F3
:101CF00090E00E949E0C60E0802F0E94DA0B82E050
:101D000090E00E941B204981481729F0642F82E04F
:101D100090E00E94232064EF71E080E090E00E9458
:101D20009E0C61E0802F0E94DA0B0E944A0E8123F4
:101D30008117D9F30F90DF91CF911F910F910895E3
:101D400069E170E082E390E00C942E0ECF93DF9374
:101D500088E090E090931501809314019093120114
:101D6000809311011092D10181E0809313011092B0
:101D7000D0011092CF01109280021092D2011092E5
:101D8000D30181E090E09093D5018093D4010E942B
:101D90006F1FCEE0D0E0BE010E94FD1CFC01EE0FE3
:101DA000FF1FE25CFE4F8081918190930701809339
:101DB00006010E946F1FBE010E94FD1CFC01EE0F78
:101DC000FF1FE25CFE4F808191819093030180931D
:101DD00002010E946F1FC6E0D0E0BE010E94FD1C00
:101DE000FC01EE0FFF1FE05DFE4F8081918190931B
:101DF0000501809304010E946F1FBE010E94FD1C1B
:101E0000FC01EE0FFF1FE05DFE4F808191819093FA
:101E10000101809300011092CD011092CE018091BA
:101E2000140190911501029690930E0180930D017B
:101E30008091110190911201029690930C01809370
:101E40000B0183E090E09093100180930F018AE0F2
:101E500090E090930A018093090164E670E080E0CD
:101E600090E0DF91CF910C949E0CFC018091910247
:101E7000811103C08FEF9FEF08959FB7F89482E020
:101E80008093E9002091F20030E01216130614F45A
:101E900021E030E02115310559F0289884E680933F
:101EA00090028091F10080838091F200882319F0E4
:101EB0009FBFC90108958BE68093E800F9CFCF93C7
:101EC000DF931F92CDB7DEB76983DC01ED91FC9102
:101ED0000280F381E02D41E050E0BE016F5F7F4F53
:101EE00009950F90DF91CF91089583E08093E900E9
:101EF0008091F200882319F08AE38093E800089526
:101F0000CF93DF931F92CDB7DEB7FC018485958513
:101F100097FD05C02FEF3FEF358724870BC0CE011B
:101F200001960E94350F019719F4898190E002C053
:101F30008FEF9FEF0F90DF91CF9108950F931F9335
:101F4000CF93DF931F92CDB7DEB78C01FC01848560
:101F5000958597FF0EC0CE0101960E94350F01971F
:101F600019F4298130E002C02FEF3FEFF8013587E7
:101F70002487F801848595850F90DF91CF911F917B
:101F80000F910895FC018485958597FD0BC09FB73F
:101F9000F89482E08093E9008091F2009FBF90E086
:101FA000019608959FB7F89482E08093E9008091AC
:101FB000F2009FBF90E008958F929F92AF92BF92E0
:101FC000CF92DF92EF92FF920F931F93CF93DF9305
:101FD0005C016B018A0180911D01882309F45EC0B8
:101FE00080919102882309F459C080918F0280FF6B
:101FF00005C08091E00082608093E000E8018AEFF4
:10200000F82E93E0E92E2FE3822E3AE3932E2097C9
:1020100009F43DC08FB7F894E092E9009091E80090
:1020200095FF06C09091F200282D291B922F01C028
:1020300090E08FBF91110AC0FA94FF2079F161E01E
:1020400070E080E090E00E949E0CE1CF292F30E00C
:10205000C217D3070CF49C2F8FB7F894E092E900D5
:102060002091E80025FF11C0292F30E0C21BD30BBF
:10207000F601915020F041914093F100FACFC20E49
:10208000D31E9091E80095FF13C08FBFC0CF5D981D
:1020900084E680938E021016110644F081E090E0F1
:1020A000F5019383828380E090E005C0C80103C0FE
:1020B0009092E800EACFDF91CF911F910F91FF90AE
:1020C000EF90DF90CF90BF90AF909F908F9008954A
:1020D000CF92DF92EF92FF920F931F93CF93DF93F4
:1020E000809164008E7F8093640087EC80937C00F5
:1020F00080E280937B0062E070E080E090E00E94EC
:102100009E0C80917A00806480937A0080917A009E
:1021100086FDFCCFC0917800D0917900C095D09514
:102120008EE580937C0062E070E080E090E00E94A9
:102130009E0C80917A00806480937A0080917A006E
:1021400086FDFCCF00917800109179000E94790CF7
:102150009B01AC01209530954095509500951095C8
:102160000C9FD0010D9FB00D1C9FB00D11240E943B
:1021700050206B017C010E94790C6C0D7D1D8E1D21
:102180009F1D611571058105910511F00E94D21FF7
:1021900080916400816080936400DF91CF911F91F2
:1021A0000F91FF90EF90DF90CF9008952F923F9284
:1021B0004F925F926F927F928F929F92AF92BF9257
:1021C000CF92DF92EF92FF920F931F93CF93DF9303
:1021D000CDB7DEB728970FB6F894DEBF0FBECDBFE0
:1021E0004A01622E712C9C01260D371D37FDCCC093
:1021F000803891050CF0C8C09B01200F311D37FDC0
:10220000C3C0603471050CF0BFC0AB0177FF04C0E0
:1022100044275527461B570B477055279B0177FFCF
:1022200002C0295F3F4FE3E035952795EA95E1F736
:1022300077FF08C02150310968E070E0DB01A41B82
:10224000B50BAD01602F66956695669570E00770D9
:1022500011F06F5F7F4FDB01A20FB31FBA83A98319
:1022600029015694542C442457944794480E591EDF
:10227000E12CF12CA12CB12C1201B0E82B0E311C59
:1022800068E070E0DB01A41BB50BBC83AB83698104
:102290007A812617370709F477C02830310509F409
:1022A00073C02F3FBFEF3B070CF462C0B1016A0D52
:1022B0007B1DDB01AE56BD4FBE83AD83D501A40DA2
:1022C000B51DAE56BD4F8C0160E070E06615770518
:1022D0000CF04EC00038110509F44AC017FD3DC08E
:1022E0002F3FEFEF3E0709F44BC0FB01EE0DFF1D42
:1022F000E80DF91DE491F0E0042E02C0EE0FFF1F7F
:102300000A94E2F7E095F095CC90D12CEC21FD21D8
:10231000EC934115510509F127303105F1F0FB012E
:10232000EE0DFF1DE80DF91DE491CE2ED12C0B8092
:1023300002C0D594C7940A94E2F7F601E095F095AF
:10234000F887EF83ED81FE81C080D12CEF81F88585
:10235000CE22DF22ED81FE81C0826F5F7F4FED8153
:10236000FE813196FE83ED830F5F1F4F1196AECF36
:102370002F5F3F4FF0E8AF0EB11CE60CF71C87CF84
:102380004115510561F6E9CF28960FB6F894DEBFE6
:102390000FBECDBFDF91CF911F910F91FF90EF90B6
:1023A000DF90CF90BF90AF909F908F907F906F9075
:1023B0005F904F903F902F900895FC01448155818C
:1023C0006081718182EA96E00C94E309CF92DF92FA
:1023D000EF92FF920F931F93CF93DF93A0E0B0E0B3
:1023E00040E050E001E0C0E8D0E0642F66956695DB
:1023F000669520E8629FB00111249A012770332767
:10240000102F01C0110F2A95EAF720E030E0F90102
:10241000F595E795F595E795F595E795EA0FFB1F97
:10242000E80FF91FF4917901E7E0EE22FF246E0135
:1024300002C0D594C794EA94E2F7EF2FF0E0EC21C4
:10244000FD21EF2B41F0F901E60FF71FEE56FD4F8E
:10245000F080F12AF0822F5F3F4F20383105B9F626
:102460004F5F5F4F50964034510509F0BECFDF916A
:10247000CF911F910F91FF90EF90DF90CF90089533
:1024800020E082E992E0B22FB111BFEFFC010024FD
:10249000B193B193B193B1930394D1F7089580911F
:1024A000C20681110DC082E08093BE0684E0809355
:1024B000BF061092C1061092C00681E08093C2064A
:1024C0008EEB96E0089540911F07509120072091D0
:1024D0001D0730911E0742175307B4F49091E8008E
:1024E0009570E1F39091E80092FD19C08093F1009E
:1024F00080911F079091200701968F739927892B50
:1025000019F48EEF8093E80080911F0790912007C7
:1025100001969093200780931F0781E0089580E043
:102520000895CF92DF92EF92FF920F931F93CF9374
:10253000DF931F92CDB7DEB7182F062FE42E862F1C
:10254000880F8E5F99830E94631283E00E9463125A
:10255000F12EC12E9981D92E8C2D8F19801798F4C8
:10256000F601E7FE02C0849101C080810E946312DF
:10257000182F80E00E9463128123FFEFCF1ADF0A39
:102580008111EACF01C081E00F90DF91CF911F91BF
:102590000F91FF90EF90DF90CF900895DF92EF9230
:1025A000FF920F931F93CF93DF93D82E8A017B0165
:1025B000E40EF51EEB01CE15DF0571F0D7FE03C06A
:1025C000FE01849101C088810E94631221968111CD
:1025D000F2CF8FEF9FEF01C0C801DF91CF911F9124
:1025E0000F91FF90EF90DF900895615030F02091AF
:1025F000F100FC0120830196F8CF289884E68093AF
:10260000900208950F931F93CF93DF931F92CDB73E
:10261000DEB782E0898342E450E061EF72E180E856
:102620000E94CE120E944F12DC0112960D911C9155
:1026300013970115110569F0D801ED91FC91028005
:10264000F381E02DBE016F5F7F4FC801099597FFB1
:1026500007C089810F90DF91CF911F910F9108954D
:10266000F80100851185E5CF1F920F920FB60F92EA
:1026700011248F939F938091E1009091E100937FCB
:102680009093E10083FF0FC01092E90091E09093D6
:10269000EB001092EC0092E39093ED001092910207
:1026A00098E09093F00082FF20C093E09093E900BF
:1026B0009091F200992319F09AE39093E800909199
:1026C0008E02992339F090918E02915090938E0250
:1026D000992389F190919002992339F09091900279
:1026E000915090939002992341F184FF10C0809102
:1026F000E2008E7E81608093E2008091E1008F7E17
:102700008093E10080918F028E7E806111C080FFF6
:1027100016C08091E2008E7E80618093E2008091FD
:10272000E1008E7E8093E10080918F028E7E816039
:1027300080938F0204C05D9ACDCF289AD6CF9F9107
:102740008F910F900FBE0F901F9018951F920F92B0
:102750000FB60F921124CF92DF92EF92FF920F9358
:102760001F932F933F934F935F936F937F938F9319
:102770009F93AF93BF93EF93FF93CF93DF93CDB727
:10278000DEB76C97DEBFCDBF1092E9008091E80004
:1027900083FFFAC168E0CE0145960E94F51282EFF0
:1027A0008093E8008D8987FF05C09091E80090FF35
:1027B000FCCF03C09EEF9093E800982F907609F02D
:1027C000C6C09E892F89188D91110CC0803829F4BC
:1027D00080911B078093F10002C01092F1001092CB
:1027E000F10047C1422F50E0512B913051F481113B
:1027F00040C14130510509F03CC180911B078D7FDC
:102800000BC0933061F4811134C14130510509F09E
:1028100030C180911B07826080931B072AC19530CD
:1028200041F48091E80080FFFCCF20682093E30012
:1028300020C1963009F05FC0EB8CFC8C1092E9004F
:102840001092200710921F07123091F510921E0768
:1028500010921D070E94021399E0BE016F5F7F4F27
:10286000DB01E92F1D92EA95E9F799831A8391E03C
:102870009E8390EA98879AEF998720911F0730915D
:102880002007275F3F4F3C832B838D831092E90005
:102890001092200710921F07F0921E07E0921D076A
:1028A00049E050E080E00E94CE120E940213E1C095
:1028B000F0921E07E0921D070E944F12DC01129653
:1028C000ED90FC901397E114F10409F4C0C0D70116
:1028D000ED91FC910480F581E02DBE016B5E7F4F90
:1028E000C7010995009719F00CF0C3C0C6C0F701E5
:1028F000E084F184E8CF973009F4BFC0983021F428
:1029000081E08093F100B5C0993009F0B2C08370C6
:1029100009F0B3C0E3E7F1E081E021E036E3908124
:10292000992361F08093E9002093EB0091919093BB
:10293000EC003093ED008F5F873089F78EE780934E
:10294000EA001092EA008F898093910292C08B8DE9
:102950009C8D1092E9001092200710921F0790930F
:102960001E0780931D07898D811156C08E899D8910
:10297000913A59F4813209F080C047E050E066E1B5
:1029800071E080E00E94CE1274C0913209F075C0EF
:10299000833289F4888D90E0982F88272F89822BA5
:1029A000A0E0B0E080931E0190931F01A09320014E
:1029B000B09321015EC0803269F48091E80082FF0B
:1029C000FCCF67E086E191E00E94F5128BEF8093E7
:1029D000E80006C0823209F04CC08F8980931D0147
:1029E00080911A07882319F0EEEFFAE002C0E0E0C8
:1029F000F8E08091160190911701A0911801B09113
:102A00001901803B9440A105B10509F088C080916F
:102A10001D0180FFA0C083C00E944F12DC011296EE
:102A20000D911C9113970115110539F1D801ED9104
:102A3000FC910190F081E02DBE016B5E7F4FC801DB
:102A40000995811116C0F80100851185ECCF113070
:102A5000C1F0133091F48F89882309F455C0823076
:102A6000E9F440E867E083E493E10E94911288234F
:102A700021F08EEF8093E80087C081E28093EB0025
:102A800083C08B8D9C8D089711F410931C07809147
:102A90001C07811136C06BE473E138C0813029F422
:102AA00040E86BE087E393E1E0CF833031F70E94A9
:102AB0004F12DC011296ED90FC9013978E010F5F80
:102AC0001F4F6801E114F10479F0D701ED91FC91F9
:102AD0000680F781E02DB801C7010995080F111D87
:102AE000F701E084F184EECFD8011C92F601019049
:102AF0000020E9F73197BF016C197D0940E0C6015C
:102B0000B4CF6DE573E102C063E373E16115710554
:102B100009F4B3CFFB01449150E080E833CF0FB606
:102B2000F894A8958091600088618093600010926D
:102B300060000FBEA895EE3F2AE0F20739F08091C1
:102B4000FE0A9091FF0A9183808393CF1092FF0A2F
:102B50001092FE0A8ECFEE3F8AE0F80731F08081B6
:102B600091819093FF0A8093FE0A87E797E791830C
:102B700080839BE088E10FB6F894A895809360006D
:102B80000FBE9093600075CF6C960FB6F894DEBFC1
:102B90000FBECDBFDF91CF91FF91EF91BF91AF916C
:102BA0009F918F917F916F915F914F913F912F9165
:102BB0001F910F91FF90EF90DF90CF900F900FBE7D
:102BC0000F901F901895CF93DF93CDB7DEB728975E
:102BD0000FB6F894DEBF0FBECDBF789484B5826087
:102BE00084BD84B5816084BD85B5826085BD85B5B1
:102BF000816085BD80916E00816080936E0010922F
:102C000081008091810082608093810080918100A9
:102C1000816080938100809180008160809380003A
:102C200080919100826080939100809191008160F9
:102C300080939100809190008160809390008091BA
:102C4000C10084608093C1008091C1008260809344
:102C5000C1008091C10081608093C1008091C30058
:102C600081608093C3008091C00082608093C00027
:102C70008091C20081608093C20080917A0084605C
:102C800080937A0080917A00826080937A008091AC
:102C90007A00816080937A0080917A0080688093C6
:102CA0007A001092910210921B0710928F0280916D
:102CB000D70081608093D70080EA8093D80089B5DF
:102CC000806189BD89B5826089BD09B400FEFDCFF0
:102CD00061E070E080E090E00E949E0C8091D8005E
:102CE0008F7C80618093D8008091E000807F80930A
:102CF000E0008091E1008E7E8093E1008DE0809382
:102D0000E200559A209AEEEFFFE7859194918B3F70
:102D10009C4D19F481E080931A071FB7F8948091B5
:102D2000D601811127C0E3E2F1E08491E6EFF0E003
:102D30009491E82FF0E0EE0FFF1FE653FF4FA591AF
:102D4000B491EC91E92321F461E081E10E94DA0B76
:102D500061E081E10E943D0C8CB580618CBD8CB539
:102D600080648CBD61E08FE00E943D0C61E080E1F9
:102D70000E943D0C8091D6018F5F8093D6011FBFCA
:102D800001E311E0F80184910E5F1F4F31966491C9
:102D9000882319F00E943D0CF5CF61E086E00E9487
:102DA000DA0B61E070E080E090E00E949E0C60E051
:102DB00086E00E94DA0B6AE070E080E090E00E941A
:102DC0009E0C61E086E00E94DA0BEEE1F1E0E49116
:102DD000F0E0EE0FFF1FEC5FFE4F85919491909312
:102DE000DC018093DB01E1EFF0E0E491E093DA01B4
:102DF000E6E1F1E0E491F0E0EE0FFF1FEC5FFE4F43
:102E0000859194919093D9018093D801E9EEF0E0F7
:102E1000E491E093D7018CB58C7F8CBD8DB581603A
:102E20008DBDE091DB01F091DC0190818091DA01B0
:102E3000982B9083A091D801B091D9012C919091B9
:102E4000D701909592239C939081809589238083CC
:102E5000E8EDF0E08DE08E0F94919EBD00000DB482
:102E600007FEFDCF9EB531968E13F6CFE091D801C7
:102E7000F091D90190818091D701892B8083E091D5
:102E8000DB01F091DC0190818091DA01809589234A
:102E900080838091640081608093640080916400ED
:102EA00082608093640080916400806880936400F5
:102EB00080916400806480936400809165008160EB
:102EC000809365000E944A0E82FF1DC060E089E089
:102ED0000E94DA0B0E944A0E8478843821F44FEF66
:102EE0006BE00E94670E0E944A0E8471843121F4C7
:102EF00040E06AE00E94670E68EC70E080E090E0DD
:102F00000E949E0CDFCF61E089E00E94DA0B82E034
:102F100090E00E941B20882359F061E085E00E9428
:102F20003D0C61E08DE00E943D0C81E08093C20188
:102F300081E28093AB060E94681050ECA52EBB2462
:102F4000BA9465E0262E312C88248394912CE2E0FB
:102F50004E2E512C2FB7F8948091C3019091C4014B
:102F6000A091C501B091C6012FBF2091B4062223C4
:102F700091F02091AC06F82FF21BF093B50620914A
:102F8000A9063091AA062F5F3F4F3093AA062093DF
:102F9000A9061092B4064091B0065091B106609116
:102FA000B2067091B30684179507A607B70778F4A1
:102FB000481B423008F474C483B7817F83BF83B752
:102FC000816083BF889583B78E7F83BF69C420915A
:102FD000AB06AC01BD01420F511D611D711D409337
:102FE000B0065093B1066093B2067093B306809317
:102FF000AC069093AD06A093AE06B093AF0681E009
:103000008093B4060E9440121092B9061092B8063E
:103010001092B7061092B6060E9440121092B9069E
:103020001092B8061092B7061092B6060091D4011D
:103030001091D5010130110509F48CC00230110541
:1030400041F0012B09F075C382ED99E00E94E61171
:1030500070C30CE010E01093B7060093B60610930F
:10306000B9060093B80669E771E0CE0101960E94A7
:10307000C50BCE0101960E94DD11CE0101960E9482
:10308000880B1093B7060093B60684E190E0909306
:10309000B9068093B8066BE871E0CE0101960E94F4
:1030A000C50BCE0101960E94DD11CE0101960E9452
:1030B000880B1093B7060093B6068CE190E09093CE
:1030C000B9068093B8066DE971E0CE0101960E94C1
:1030D000C50BCE0101960E94DD11CE0101960E9422
:1030E000880B1093B7060093B60684E290E09093A5
:1030F000B9068093B80660EB71E0CE0101960E949C
:10310000C50BCE0101960E94DD11CE0101960E94F1
:10311000880B80E490E09093B7068093B60688E32E
:1031200090E09093B9068093B80667EB71E0CE010A
:1031300001960E94C50BCE0101960E94DD11CE01C1
:1031400001960E94880B6AEF70E080E090E00E9498
:103150009E0CEFC28091D3018823B1F082ED95E0FF
:103160000E94E6118091A9069091AA066DE770E091
:103170000E94E91C892B09F0DCC210937F020093A6
:103180007E020E94A60ED5C282ED91E00E94E61159
:103190008091D20181113DC00E9468104EEDE42E55
:1031A00041E0F42E0E946F1F6DE070E00E94FD1C54
:1031B0008C010E946F1FB1010E94FD1C01151105B9
:1031C00031F4009721F482E090E001E010E0000F7C
:1031D000111FF801E25CFE4F20813181D701119669
:1031E0003C932E93880F991FFC01E05DFE4F808178
:1031F000918113969C938E931297B4E0EB0EF11C81
:10320000EEE7EE16E2E0FE0669F681E08093D20179
:1032100022C09EEDE92E91E0F92ED70112966D9114
:103220007C91139708E028E048E551E08D919C914E
:103230000E94D610B4E0EB0EF11CEEE7EE16E2E0D1
:10324000FE0659F728E040E551E060E370E080E7D2
:1032500090E00E94D6101092D3018EEDC82E81E02E
:10326000D82E8601FF24F394D8014D915C911197DB
:1032700012962D913C911397809114019091150114
:10328000BA016A5F7F4F68177907D4F006968417F2
:103290009507B4F08091110190911201A9014A5F44
:1032A0005F4F4817590764F006968217930744F05A
:1032B000F092D30164E670E084E690E00E942E0E66
:1032C0000C5F1F4FB2E00E371B0771F6209106010D
:1032D000309107018091140190911501A9014A5F75
:1032E0005F4F48175907FCF0069682179307DCF0EA
:1032F00020910401309105018091110190911201FA
:10330000A9014A5F5F4F481759076CF0069682176C
:1033100093074CF081E08093D30164E670E084E68B
:1033200090E00E942E0E20910201309103018091C5
:10333000140190911501A9014A5F5F4F4817590781
:10334000FCF0069682179307DCF020910001309183
:1033500001018091110190911201A9014A5F5F4F13
:10336000481759076CF00696821793074CF081E0D6
:103370008093D30164E670E084E690E00E942E0E14
:1033800080911401909115018A5691090D97C0F40E
:1033900080911101909112018A970D9788F464E64B
:1033A00070E080E496E00E942E0E80917E02909163
:1033B0007F02019690937F0280937E020E94A60E68
:1033C0008091D101882371F06091110170911201F7
:1033D00008E028E048E751E0809114019091150140
:1033E0000E94D61080911301882371F06091110121
:1033F0007091120108E028E040E751E0809114014B
:10340000909115010E94D6108091D001882371F00F
:10341000609111017091120108E028E048E651E046
:1034200080911401909115010E94D6108091CF01D6
:10343000882371F0609111017091120108E028E079
:1034400040E651E080911401909115010E94D61040
:10345000209108018091060190910701222341F0FB
:103460008930910514F0019707C0109208010CC033
:103470008037910534F401969093070180930601FB
:1034800003C081E0809308018091A9069091AA066B
:1034900066E070E00E94E91C9C0180910601909119
:1034A0000701609104017091050108E0232B21F4CC
:1034B00028E048E951E003C028E040E951E00E94DB
:1034C000D6102091DD018091020190910301222309
:1034D00041F08930910514F0019707C01092DD0189
:1034E0000CC08037910534F40196909303018093CA
:1034F000020103C081E08093DD012091A906309193
:10350000AA062370332780910201909103016091F4
:1035100000017091010108E0232B21F428E048E824
:1035200051E003C028E040E851E00E94D610E0E1FD
:10353000F0E0F093B706E093B6061092B906109249
:10354000B80660910F01709110014AE0CE0101961A
:103550000E948D0BCE0101960E94DD11CE010196D5
:103560000E94880B8091CD01882309F456C0809178
:10357000CE0160900B0170900C01E0900D01F09075
:103580000E0104E024E0811107C044EA51E0B301D8
:10359000C7010E94D61041C040EA51E0B301C70103
:1035A0000E94D610A70142505109C301029793010E
:1035B0002A503109A6E06A0E711CF7013A97F88784
:1035C000EF83F6E0EF0EF11CD601ED91FC9111971F
:1035D00012966D917C911397E417F50709F0ACC131
:1035E00011E06615770509F0A3C1AF81B885EA1728
:1035F000FB0709F4A3C1EE15FF0509F49FC11111E2
:10360000A1C1F4E0CF0ED11C6EE7C61662E0D6066B
:10361000D9F61092CD011092CE018091A906909119
:10362000AA066CE370E00E94E91C892B89F4809162
:10363000CD01882369F08091CE01811109C081E01C
:103640008093CE0164E670E080EB94E00E942E0E41
:103650008091A9069091AA066EE170E00E94E91C93
:10366000892B89F58091090190910A018230910599
:1036700034F0019790930A018093090124C080914E
:1036800071008D7F8093710081E08093CB0188EA87
:1036900091E09093CA018093C9019093C8018093EF
:1036A000C7010E94220D8091CC018111FCCF62E301
:1036B00070E080E090E00E949E0C90927F028092E9
:1036C0007E020E94A60E84E490E09093B706809359
:1036D000B6061092B9061092B80660917E027091FB
:1036E0007F024AE0CE0101960E948D0BCE01019629
:1036F0000E94DD11CE0101960E94880B8CE690E0BD
:103700009093B7068093B6061092B9061092B80649
:103710006091090170910A014AE0CE0101960E9470
:103720008D0BCE0101960E94DD11CE0101960E9403
:10373000880B64E170E080E090E00E949E0C809134
:10374000D4019091D50181309105C1F0823091056D
:1037500061F0892B09F093C00E944A0E83FDA8C036
:103760000E944A0E82FDA4C08AC00E944A0E83FDB8
:10377000DCC00E944A0E82FDD8C081C08091D30176
:10378000811175C00E944A0E86FF17C080911401F6
:10379000909115018037910584F40296909315015C
:1037A000809314011092D1011092130181E0809353
:1037B000D0011092CF010E94A00E0E944A0E85FFF8
:1037C00017C080911401909115018930910584F002
:1037D000029790931501809314011092D1011092D9
:1037E00013011092D00181E08093CF010E94A00EBE
:1037F0000E944A0E87FF17C080911101909112011B
:103800008930910584F00297909312018093110101
:1038100081E08093D101109213011092D001109297
:10382000CF010E94A00E0E944A0E84FF17C0809113
:103830001101909112018033910584F402969093C6
:103840001201809311011092D10181E08093130144
:103850001092D0011092CF010E94A00E0E944A0E39
:1038600083FD2BC00E944A0E82FD27C008C00E9423
:103870004A0E83FD56C00E944A0E82FD52C08091BE
:1038800092028EBDE3E9F2E081910DB407FEFDCF17
:103890008EBD76E0E239F707B9F70DB407FEFDCF2C
:1038A00080E090E0892B09F455CB0E94000052CBB8
:1038B0005092D5014092D401E2CF8091CE01811186
:1038C000DECF8091CD018111DACF80910F019091EF
:1038D0001001181619069CF664E670E084E893E07F
:1038E0000E942E0E81E08093CD0180911401909171
:1038F0001501029690930E0180930D0180911101A4
:1039000090911201029690930C0180930B0180918B
:103910000F019091100101979093100180930F0176
:10392000AECF90927F0280927E020E94A60EA7CF19
:103930006217730709F459CE10E057CE681779075C
:1039400009F05DCEF601B182A082B382A28259CE87
:10395000EAECF6E01382128288EE93E0A0E0B0E099
:1039600084839583A683B7838EE591E091838083DA
:103970008FEF9FEF95878487E2EAF6E01382128249
:103980001582168280E18187108617821686178637
:10399000108A118A128A8EE691E091838083158ABB
:1039A000148A178A168A81E0808F118E828F138E77
:1039B00088E29AE09093A1068093A00680E090E8C8
:1039C00090939F0680939E0646983E9A47983F9A0A
:1039D0000895AA1BBB1B51E107C0AA1FBB1FA61756
:1039E000B70710F0A61BB70B881F991F5A95A9F7A8
:1039F00080959095BC01CD01089597FB072E16F494
:103A0000009407D077FD09D00E94E91C07FC05D07F
:103A10003EF4909581959F4F0895709561957F4FE5
:103A20000895EE0FFF1F0590F491E02D0994CF93B8
:103A3000DF938230910510F482E090E0E09123075B
:103A4000F091240720E030E0C0E0D0E0309711F1A1
:103A50004081518148175907C0F04817590761F450
:103A600082819381209719F09B838A832BC0909346
:103A700024078093230726C02115310519F042172A
:103A8000530718F49A01BE01DF01EF010280F381B0
:103A9000E02DDCCF2115310509F1281B390B24302D
:103AA000310590F412968D919C91139761157105D3
:103AB00021F0FB019383828304C0909324078093B9
:103AC0002307FD01329644C0FD01E20FF31F8193ED
:103AD0009193225031092D933C933AC020912107B4
:103AE00030912207232B41F42091240130912501AC
:103AF0003093220720932107209122013091230146
:103B00002115310541F42DB73EB740912601509162
:103B10002701241B350BE0912107F0912207E217C2
:103B2000F307A0F42E1B3F0B2817390778F0AC01E0
:103B30004E5F5F4F2417350748F04E0F5F1F5093BD
:103B40002207409321078193919302C0E0E0F0E0C7
:103B5000CF01DF91CF9108950F931F93CF93DF9300
:103B6000009709F48CC0FC013297138212820091F5
:103B70002307109124070115110581F4208131815B
:103B8000820F931F209121073091220728173907B0
:103B900079F5F0932207E093210771C0D80140E046
:103BA00050E0AE17BF0750F412962D913C91139739
:103BB000AD012115310509F1D901F3CF9D01DA01DC
:103BC0003383228360817181860F971F8217930749
:103BD00069F4EC0128813981260F371F2E5F3F4F92
:103BE000318320838A819B8193838283452B29F4AF
:103BF000F0932407E093230742C01396FC93EE93BF
:103C00001297ED01499159919E01240F351FE2173A
:103C1000F30771F480819181840F951F02961196AC
:103C20009C938E938281938113969C938E9312978B
:103C3000E0E0F0E0D80112968D919C9113970097E7
:103C400019F0F8018C01F6CF8D919C9198012E5FAF
:103C50003F4F820F931F2091210730912207281791
:103C6000390769F4309729F410922407109223073A
:103C700002C0138212821093220700932107DF9162
:103C8000CF911F910F910895A0E0B0E0EAE4FEE12A
:103C90000C946720EC01009721F4CB010E94171DC2
:103CA000B8C0FC01E60FF71F9C0122503109E21752
:103CB000F30708F4ACC0D9010D911C9111970617B8
:103CC0001707B0F00530110508F49FC0C80104972C
:103CD0008617970708F499C002501109061B170BA5
:103CE000019311936D937C93CF010E94AC1D8DC005
:103CF0005B01A01AB10A4C01800E911EA09123070E
:103D0000B091240740E050E0E12CF12C109709F429
:103D10004AC0A815B905D1F56D907C901197630143
:103D200082E0C80ED11CCA14DB0480F1A3014A1939
:103D30005B096A0182E0C80ED11C1296BC901297F2
:103D40001396AC91B5E0CB16D10440F0B282A383B8
:103D500051834083D9016D937C930AC00E5F1F4F3E
:103D6000C301800F911FF90191838083EB2DFA2FFE
:103D7000E114F10431F0D7011396FC93EE931297FE
:103D800044C0F0932407E09323073FC08D919C919A
:103D900011974817590708F4AC017D0112960D9050
:103DA000BC91A02DB3CF8091210790912207881557
:103DB0009905E1F446175707C8F4809122019091C4
:103DC0002301009741F48DB79EB740912601509191
:103DD0002701841B950BE817F907C8F4F093220715
:103DE000E0932107F901718360830FC0CB010E942A
:103DF000171D7C01009759F0A801BE010E94131FF6
:103E0000CE010E94AC1DC70104C0CE0102C080E0FB
:103E100090E0CDB7DEB7EEE00C94832081E090E037
:103E2000F8940C94CB20FB01DC0102C001900D92B0
:103E300041505040D8F70895FB01DC0101900D92EC
:103E40000020E1F708958F929F92AF92BF92CF9298
:103E5000DF92EF92FF92CF93DF93EC01688179813B
:103E60008A819B81611571058105910521F464E2C8
:103E700079ED8BE597E02DE133EF41E050E00E94D2
:103E8000312049015A019B01AC01A7EAB1E40E942B
:103E900050206B017C01ACEEB4EFA50194010E94AF
:103EA0005E20DC01CB018C0D9D1DAE1DBF1DB7FF3B
:103EB00003C00197A109B04888839983AA83BB8373
:103EC0009F77DF91CF91FF90EF90DF90CF90BF90E1
:103ED000AF909F908F9008950E94231F089588E2CD
:103EE00091E00E94231F0895A0E0B0E08093280194
:103EF00090932901A0932A01B0932B0108958F92EA
:103F00009F92AF92BF92CF92DF92EF92FF92CF93A8
:103F1000DF93EC01688179818A819B81611571054C
:103F20008105910521F464E279ED8BE597E02DE1BF
:103F300033EF41E050E00E94312049015A019B01DA
:103F4000AC01A7EAB1E40E9450206B017C01ACEE09
:103F5000B4EFA50194010E945E20DC01CB018C0D21
:103F60009D1DAE1DBF1DB7FF03C00197A109B0483D
:103F700088839983AA83BB83BC01CD019F77DF919E
:103F8000CF91FF90EF90DF90CF90BF90AF909F9038
:103F90008F9008950E947F1F08958CE291E00E9407
:103FA0007F1F089560932C0170932D0180932E0143
:103FB00090932F0108954532510520F4423010F0BE
:103FC0000C94E61FFB011082CB010895BB274A30F9
:103FD00031F4992322F4BDE2909581959F4F0C9482
:103FE000F21FBB27FB015527AA27880F991FAA1F7D
:103FF000A41710F0A41B83955051B9F7A05DAA3304
:1040000008F0A95DA193009779F7B111B1931192CE
:10401000CB010C940B20DC01FC01672F71917723FD
:10402000E1F7329704C07C916D9370836291AE1773
:10403000BF07C8F30895F999FECF92BD81BDF89AE4
:10404000992780B50895262FF999FECF1FBA92BD02
:1040500081BD20BD0FB6F894FA9AF99A0FBE019669
:104060000895052E97FB1EF400940E94482057FDEA
:1040700007D00E949A2007FC03D04EF40C944820ED
:1040800050954095309521953F4F4F4F5F4F089584
:1040900090958095709561957F4F8F4F9F4F0895B4
:1040A0000E94BC20A59F900DB49F900DA49F800DF1
:1040B000911D11240895B7FF0C9450200E945020A8
:1040C000821B930B08952F923F924F925F926F92B3
:1040D0007F928F929F92AF92BF92CF92DF92EF9298
:1040E000FF920F931F93CF93DF93CDB7DEB7CA1B19
:1040F000DB0B0FB6F894DEBF0FBECDBF09942A8844
:10410000398848885F846E847D848C849B84AA84EB
:10411000B984C884DF80EE80FD800C811B81AA8178
:10412000B981CE0FD11D0FB6F894DEBF0FBECDBF43
:10413000ED010895A1E21A2EAA1BBB1BFD010DC0C3
:10414000AA1FBB1FEE1FFF1FA217B307E407F50747
:1041500020F0A21BB30BE40BF50B661F771F881F23
:10416000991F1A9469F760957095809590959B01B9
:10417000AC01BD01CF010895A29FB001B39FC00162
:10418000A39F700D811D1124911DB29F700D811D83
:0A4190001124911D0895F894FFCF4B
:10419A002000700030007000010A000800080003C7
:1041AA0000080001080000E1000000000000FFFF15
:1041BA00FFFF000025078000010000000100000049
:1041CA0008001000180020002800300038000800FD
:1041DA001000180020002800300038004000480075
:1041EA0050005800600068007000000000005F0F77
:1041FA00DC0FC20F800F9E0F750F000000002B0A04
:10420A00E30900C18081000000594F5520484156FA
:10421A0045204F4E45204A4F422C003320424F4DF5
:10422A0042532C20414E44203130733A00474554C2
:10423A0020544F2054484520444F4F522E2E2E00D2
:10424A00414C4956452E00474F4F44204C55434B4D
:02425A00210041
:00000001FF
